{
  "contractName": "BancorConverterUpgrader",
  "abi": [
    {
      "constant": false,
      "inputs": [
        {
          "name": "_adminOnly",
          "type": "bool"
        }
      ],
      "name": "restrictRegistryUpdate",
      "outputs": [],
      "payable": false,
      "stateMutability": "nonpayable",
      "type": "function"
    },
    {
      "constant": false,
      "inputs": [],
      "name": "updateRegistry",
      "outputs": [],
      "payable": false,
      "stateMutability": "nonpayable",
      "type": "function"
    },
    {
      "constant": true,
      "inputs": [],
      "name": "version",
      "outputs": [
        {
          "name": "",
          "type": "string"
        }
      ],
      "payable": false,
      "stateMutability": "view",
      "type": "function"
    },
    {
      "constant": true,
      "inputs": [],
      "name": "prevRegistry",
      "outputs": [
        {
          "name": "",
          "type": "address"
        }
      ],
      "payable": false,
      "stateMutability": "view",
      "type": "function"
    },
    {
      "constant": false,
      "inputs": [],
      "name": "acceptOwnership",
      "outputs": [],
      "payable": false,
      "stateMutability": "nonpayable",
      "type": "function"
    },
    {
      "constant": true,
      "inputs": [],
      "name": "registry",
      "outputs": [
        {
          "name": "",
          "type": "address"
        }
      ],
      "payable": false,
      "stateMutability": "view",
      "type": "function"
    },
    {
      "constant": true,
      "inputs": [],
      "name": "owner",
      "outputs": [
        {
          "name": "",
          "type": "address"
        }
      ],
      "payable": false,
      "stateMutability": "view",
      "type": "function"
    },
    {
      "constant": true,
      "inputs": [],
      "name": "CONVERTER_CONVERSION_WHITELIST",
      "outputs": [
        {
          "name": "",
          "type": "uint256"
        }
      ],
      "payable": false,
      "stateMutability": "view",
      "type": "function"
    },
    {
      "constant": false,
      "inputs": [],
      "name": "restoreRegistry",
      "outputs": [],
      "payable": false,
      "stateMutability": "nonpayable",
      "type": "function"
    },
    {
      "constant": true,
      "inputs": [],
      "name": "adminOnly",
      "outputs": [
        {
          "name": "",
          "type": "bool"
        }
      ],
      "payable": false,
      "stateMutability": "view",
      "type": "function"
    },
    {
      "constant": true,
      "inputs": [],
      "name": "newOwner",
      "outputs": [
        {
          "name": "",
          "type": "address"
        }
      ],
      "payable": false,
      "stateMutability": "view",
      "type": "function"
    },
    {
      "constant": false,
      "inputs": [
        {
          "name": "_newOwner",
          "type": "address"
        }
      ],
      "name": "transferOwnership",
      "outputs": [],
      "payable": false,
      "stateMutability": "nonpayable",
      "type": "function"
    },
    {
      "inputs": [
        {
          "name": "_registry",
          "type": "address"
        }
      ],
      "payable": false,
      "stateMutability": "nonpayable",
      "type": "constructor"
    },
    {
      "anonymous": false,
      "inputs": [
        {
          "indexed": true,
          "name": "_converter",
          "type": "address"
        },
        {
          "indexed": true,
          "name": "_owner",
          "type": "address"
        }
      ],
      "name": "ConverterOwned",
      "type": "event"
    },
    {
      "anonymous": false,
      "inputs": [
        {
          "indexed": true,
          "name": "_oldConverter",
          "type": "address"
        },
        {
          "indexed": true,
          "name": "_newConverter",
          "type": "address"
        }
      ],
      "name": "ConverterUpgrade",
      "type": "event"
    },
    {
      "anonymous": false,
      "inputs": [
        {
          "indexed": true,
          "name": "_prevOwner",
          "type": "address"
        },
        {
          "indexed": true,
          "name": "_newOwner",
          "type": "address"
        }
      ],
      "name": "OwnerUpdate",
      "type": "event"
    },
    {
      "constant": false,
      "inputs": [
        {
          "name": "_version",
          "type": "uint16"
        }
      ],
      "name": "upgrade",
      "outputs": [],
      "payable": false,
      "stateMutability": "nonpayable",
      "type": "function"
    },
    {
      "constant": false,
      "inputs": [
        {
          "name": "_version",
          "type": "bytes32"
        }
      ],
      "name": "upgrade",
      "outputs": [],
      "payable": false,
      "stateMutability": "nonpayable",
      "type": "function"
    },
    {
      "constant": false,
      "inputs": [
        {
          "name": "_converter",
          "type": "address"
        },
        {
          "name": "_version",
          "type": "bytes32"
        }
      ],
      "name": "upgradeOld",
      "outputs": [],
      "payable": false,
      "stateMutability": "nonpayable",
      "type": "function"
    }
  ],
  "bytecode": "0x60c0604052600360808190527f302e33000000000000000000000000000000000000000000000000000000000060a0908152620000409160049190620000bd565b503480156200004e57600080fd5b50604051602080620018a5833981016040525160008054600160a060020a031916331790558080600160a060020a03811615156200008b57600080fd5b5060028054600160a060020a03909216600160a060020a03199283168117909155600380549092161790555062000162565b828054600181600116156101000203166002900490600052602060002090601f016020900481019282601f106200010057805160ff191683800117855562000130565b8280016001018555821562000130579182015b828111156200013057825182559160200191906001019062000113565b506200013e92915062000142565b5090565b6200015f91905b808211156200013e576000815560010162000149565b90565b61173380620001726000396000f3006080604052600436106100c15763ffffffff60e060020a600035041663024c7ec781146100c657806349d10b64146100e257806354fd4d50146100f757806361cd756e1461018157806379ba5097146101b25780637b103999146101c75780638da5cb5b146101dc57806390f58c96146101f157806392d1abb71461020d578063b4a176d314610234578063bc444e1314610249578063c976a35914610261578063d4ee1d901461028a578063f2cfed871461029f578063f2fde38b146102c3575b600080fd5b3480156100d257600080fd5b506100e060043515156102e4565b005b3480156100ee57600080fd5b506100e0610364565b34801561010357600080fd5b5061010c6104fd565b6040805160208082528351818301528351919283929083019185019080838360005b8381101561014657818101518382015260200161012e565b50505050905090810190601f1680156101735780820380516001836020036101000a031916815260200191505b509250505060405180910390f35b34801561018d57600080fd5b5061019661058b565b60408051600160a060020a039092168252519081900360200190f35b3480156101be57600080fd5b506100e061059a565b3480156101d357600080fd5b50610196610622565b3480156101e857600080fd5b50610196610631565b3480156101fd57600080fd5b506100e061ffff60043516610640565b34801561021957600080fd5b50610222610651565b60408051918252519081900360200190f35b34801561024057600080fd5b506100e0610656565b34801561025557600080fd5b506100e060043561069a565b34801561026d57600080fd5b506102766106a4565b604080519115158252519081900360200190f35b34801561029657600080fd5b506101966106c5565b3480156102ab57600080fd5b506100e0600160a060020a03600435166024356106d4565b3480156102cf57600080fd5b506100e0600160a060020a0360043516610ae6565b60035460ff74010000000000000000000000000000000000000000909104161515811515148015906103195750610319610b47565b151561032457600080fd5b60038054911515740100000000000000000000000000000000000000000274ff000000000000000000000000000000000000000019909216919091179055565b60035460009074010000000000000000000000000000000000000000900460ff1615806103945750610394610b47565b151561039f57600080fd5b6103c87f436f6e7472616374526567697374727900000000000000000000000000000000610b58565b600254909150600160a060020a038083169116148015906103f15750600160a060020a03811615155b15156103fc57600080fd5b604080517fbb34534c0000000000000000000000000000000000000000000000000000000081527f436f6e747261637452656769737472790000000000000000000000000000000060048201529051600091600160a060020a0384169163bb34534c9160248082019260209290919082900301818787803b15801561048057600080fd5b505af1158015610494573d6000803e3d6000fd5b505050506040513d60208110156104aa57600080fd5b5051600160a060020a031614156104c057600080fd5b6002805460038054600160a060020a0380841673ffffffffffffffffffffffffffffffffffffffff19928316179092559091169216919091179055565b6004805460408051602060026001851615610100026000190190941693909304601f810184900484028201840190925281815292918301828280156105835780601f1061055857610100808354040283529160200191610583565b820191906000526020600020905b81548152906001019060200180831161056657829003601f168201915b505050505081565b600354600160a060020a031681565b600154600160a060020a031633146105b157600080fd5b60015460008054604051600160a060020a0393841693909116917f343765429aea5a34b3ff6a3785a98a5abb2597aca87bfbb58632c173d585373a91a3600180546000805473ffffffffffffffffffffffffffffffffffffffff19908116600160a060020a03841617909155169055565b600254600160a060020a031681565b600054600160a060020a031681565b61064e3361ffff83166106d4565b50565b600181565b61065e610b47565b151561066957600080fd5b6003546002805473ffffffffffffffffffffffffffffffffffffffff1916600160a060020a03909216919091179055565b61064e33826106d4565b60035474010000000000000000000000000000000000000000900460ff1681565b600154600160a060020a031681565b60008060008085935083600160a060020a0316638da5cb5b6040518163ffffffff1660e060020a028152600401602060405180830381600087803b15801561071b57600080fd5b505af115801561072f573d6000803e3d6000fd5b505050506040513d602081101561074557600080fd5b5051925061075284610bf0565b61075b84610c7f565b915061076784836110f0565b61077184836113e1565b61077b84836114d4565b83600160a060020a031663fc0c546a6040518163ffffffff1660e060020a028152600401602060405180830381600087803b1580156107b957600080fd5b505af11580156107cd573d6000803e3d6000fd5b505050506040513d60208110156107e357600080fd5b5051604080517f8da5cb5b0000000000000000000000000000000000000000000000000000000081529051919250600160a060020a038087169290841691638da5cb5b9160048083019260209291908290030181600087803b15801561084857600080fd5b505af115801561085c573d6000803e3d6000fd5b505050506040513d602081101561087257600080fd5b5051600160a060020a0316141561094d5783600160a060020a03166321e6b53d836040518263ffffffff1660e060020a0281526004018082600160a060020a0316600160a060020a03168152602001915050600060405180830381600087803b1580156108de57600080fd5b505af11580156108f2573d6000803e3d6000fd5b5050505081600160a060020a03166338a5e0166040518163ffffffff1660e060020a028152600401600060405180830381600087803b15801561093457600080fd5b505af1158015610948573d6000803e3d6000fd5b505050505b83600160a060020a031663f2fde38b846040518263ffffffff1660e060020a0281526004018082600160a060020a0316600160a060020a03168152602001915050600060405180830381600087803b1580156109a857600080fd5b505af11580156109bc573d6000803e3d6000fd5b5050505081600160a060020a031663f2fde38b846040518263ffffffff1660e060020a0281526004018082600160a060020a0316600160a060020a03168152602001915050600060405180830381600087803b158015610a1b57600080fd5b505af1158015610a2f573d6000803e3d6000fd5b5050505081600160a060020a031663e4edf852846040518263ffffffff1660e060020a0281526004018082600160a060020a0316600160a060020a03168152602001915050600060405180830381600087803b158015610a8e57600080fd5b505af1158015610aa2573d6000803e3d6000fd5b5050604051600160a060020a038086169350871691507f522b846327aea07106ec4d64ae4b6d6dea47689884dab650fd3a1f2e1d6a270190600090a3505050505050565b600054600160a060020a03163314610afd57600080fd5b600054600160a060020a0382811691161415610b1857600080fd5b6001805473ffffffffffffffffffffffffffffffffffffffff1916600160a060020a0392909216919091179055565b600054600160a060020a0316331490565b600254604080517fbb34534c000000000000000000000000000000000000000000000000000000008152600481018490529051600092600160a060020a03169163bb34534c91602480830192602092919082900301818787803b158015610bbe57600080fd5b505af1158015610bd2573d6000803e3d6000fd5b505050506040513d6020811015610be857600080fd5b505192915050565b80600160a060020a03166379ba50976040518163ffffffff1660e060020a028152600401600060405180830381600087803b158015610c2e57600080fd5b505af1158015610c42573d6000803e3d6000fd5b5050604051309250600160a060020a03841691507ff764604894fa993d4370a9cb28b81c11deb1aafdb2909156173ae3833dad807590600090a350565b60008060008060008060008088600160a060020a031663fc0c546a6040518163ffffffff1660e060020a028152600401602060405180830381600087803b158015610cc957600080fd5b505af1158015610cdd573d6000803e3d6000fd5b505050506040513d6020811015610cf357600080fd5b5051604080517f94c275ad0000000000000000000000000000000000000000000000000000000081529051919750600160a060020a038b16916394c275ad916004808201926020929091908290030181600087803b158015610d5457600080fd5b505af1158015610d68573d6000803e3d6000fd5b505050506040513d6020811015610d7e57600080fd5b50519450610dab7f42616e636f72436f6e766572746572466163746f727900000000000000000000610b58565b600254604080517f034efaeb000000000000000000000000000000000000000000000000000000008152600160a060020a038a81166004830152928316602482015263ffffffff891660448201526000606482018190526084820181905291519397509187169263034efaeb9260a4808201936020939283900390910190829087803b158015610e3a57600080fd5b505af1158015610e4e573d6000803e3d6000fd5b505050506040513d6020811015610e6457600080fd5b5051604080517f79ba50970000000000000000000000000000000000000000000000000000000081529051919450849350600160a060020a038416916379ba50979160048082019260009290919082900301818387803b158015610ec757600080fd5b505af1158015610edb573d6000803e3d6000fd5b5050505081600160a060020a031663c8c2fe6c6040518163ffffffff1660e060020a028152600401600060405180830381600087803b158015610f1d57600080fd5b505af1158015610f31573d6000803e3d6000fd5b50505050610f5e7f436f6e7472616374466561747572657300000000000000000000000000000000610b58565b905080600160a060020a031663a5fbf2878a60016040518363ffffffff1660e060020a0281526004018083600160a060020a0316600160a060020a0316815260200182815260200192505050602060405180830381600087803b158015610fc457600080fd5b505af1158015610fd8573d6000803e3d6000fd5b505050506040513d6020811015610fee57600080fd5b5051156110e45788600160a060020a031663c45d3d926040518163ffffffff1660e060020a028152600401602060405180830381600087803b15801561103357600080fd5b505af1158015611047573d6000803e3d6000fd5b505050506040513d602081101561105d57600080fd5b50519650600160a060020a038716156110e45781600160a060020a0316634af80f0e886040518263ffffffff1660e060020a0281526004018082600160a060020a0316600160a060020a03168152602001915050600060405180830381600087803b1580156110cb57600080fd5b505af11580156110df573d6000803e3d6000fd5b505050505b50979650505050505050565b600080600080600080600088600160a060020a03166371f52bf36040518163ffffffff1660e060020a028152600401602060405180830381600087803b15801561113957600080fd5b505af115801561114d573d6000803e3d6000fd5b505050506040513d602081101561116357600080fd5b50519350600092505b8361ffff168361ffff1610156113d65788600160a060020a03166319b64015846040518263ffffffff1660e060020a028152600401808261ffff168152602001915050602060405180830381600087803b1580156111c957600080fd5b505af11580156111dd573d6000803e3d6000fd5b505050506040513d60208110156111f357600080fd5b5051604080517f0e53aae9000000000000000000000000000000000000000000000000000000008152600160a060020a0380841660048301529151929450908b1691630e53aae99160248082019260a0929091908290030181600087803b15801561125d57600080fd5b505af1158015611271573d6000803e3d6000fd5b505050506040513d60a081101561128757600080fd5b508051602082015160409283015183517f3f4d2fc2000000000000000000000000000000000000000000000000000000008152600160a060020a03808816600483015263ffffffff8416602483015282151560448301529451939b509199509750849350918a1691633f4d2fc291606480830192600092919082900301818387803b15801561131557600080fd5b505af1158015611329573d6000803e3d6000fd5b5050505084156113cb57604080517f0ca78923000000000000000000000000000000000000000000000000000000008152600160a060020a03838116600483015263ffffffff891660248301528715156044830152606482018a90529151918a1691630ca789239160848082019260009290919082900301818387803b1580156113b257600080fd5b505af11580156113c6573d6000803e3d6000fd5b505050505b60019092019161116c565b505050505050505050565b600082600160a060020a031663579cd3ca6040518163ffffffff1660e060020a028152600401602060405180830381600087803b15801561142157600080fd5b505af1158015611435573d6000803e3d6000fd5b505050506040513d602081101561144b57600080fd5b5051604080517fecbca55d00000000000000000000000000000000000000000000000000000000815263ffffffff831660048201529051919250600160a060020a0384169163ecbca55d9160248082019260009290919082900301818387803b1580156114b757600080fd5b505af11580156114cb573d6000803e3d6000fd5b50505050505050565b600080600080600086600160a060020a03166371f52bf36040518163ffffffff1660e060020a028152600401602060405180830381600087803b15801561151a57600080fd5b505af115801561152e573d6000803e3d6000fd5b505050506040513d602081101561154457600080fd5b50519350600092505b8361ffff168361ffff1610156114cb5786600160a060020a03166319b64015846040518263ffffffff1660e060020a028152600401808261ffff168152602001915050602060405180830381600087803b1580156115aa57600080fd5b505af11580156115be573d6000803e3d6000fd5b505050506040513d60208110156115d457600080fd5b5051604080517f70a08231000000000000000000000000000000000000000000000000000000008152600160a060020a038a811660048301529151929450849350908316916370a08231916024808201926020929091908290030181600087803b15801561164157600080fd5b505af1158015611655573d6000803e3d6000fd5b505050506040513d602081101561166b57600080fd5b5051604080517f5e35359e000000000000000000000000000000000000000000000000000000008152600160a060020a038481166004830152898116602483015260448201849052915192975090891691635e35359e9160648082019260009290919082900301818387803b1580156116e357600080fd5b505af11580156116f7573d6000803e3d6000fd5b50506001909401935061154d90505600a165627a7a723058208bb57bd14fa7be45ac8c3906cca5e366bbc45c9f0c96a8e1841f3caf7ecd907d0029",
  "source": "pragma solidity 0.4.26;\r\nimport './interfaces/IBancorConverter.sol';\r\nimport './interfaces/IBancorConverterUpgrader.sol';\r\nimport './interfaces/IBancorConverterFactory.sol';\r\nimport '../utility/ContractRegistryClient.sol';\r\nimport '../utility/interfaces/IContractFeatures.sol';\r\nimport '../utility/interfaces/IWhitelist.sol';\r\nimport '../FeatureIds.sol';\r\n\r\n/*\r\n    Bancor converter dedicated interface\r\n*/\r\ncontract IBancorConverterExtended is IBancorConverter, IOwned {\r\n    function token() public view returns (ISmartToken) {this;}\r\n    function maxConversionFee() public view returns (uint32) {this;}\r\n    function conversionFee() public view returns (uint32) {this;}\r\n    function connectorTokenCount() public view returns (uint16);\r\n    function reserveTokenCount() public view returns (uint16);\r\n    function connectorTokens(uint256 _index) public view returns (IERC20Token) {_index; this;}\r\n    function reserveTokens(uint256 _index) public view returns (IERC20Token) {_index; this;}\r\n    function setConversionWhitelist(IWhitelist _whitelist) public;\r\n    function transferTokenOwnership(address _newOwner) public;\r\n    function withdrawTokens(IERC20Token _token, address _to, uint256 _amount) public;\r\n    function acceptTokenOwnership() public;\r\n    function transferManagement(address _newManager) public;\r\n    function acceptManagement() public;\r\n    function setConversionFee(uint32 _conversionFee) public;\r\n    function addConnector(IERC20Token _token, uint32 _weight, bool _enableVirtualBalance) public;\r\n    function updateConnector(IERC20Token _connectorToken, uint32 _weight, bool _enableVirtualBalance, uint256 _virtualBalance) public;\r\n}\r\n\r\n/**\r\n  * @dev Bancor Converter Upgrader\r\n  * \r\n  * The Bancor converter upgrader contract allows upgrading an older Bancor converter contract (0.4 and up)\r\n  * to the latest version.\r\n  * To begin the upgrade process, simply execute the 'upgrade' function.\r\n  * At the end of the process, the ownership of the newly upgraded converter will be transferred\r\n  * back to the original owner and the original owner will need to execute the 'acceptOwnership' function.\r\n  * \r\n  * The address of the new converter is available in the ConverterUpgrade event.\r\n  * \r\n  * Note that for older converters that don't yet have the 'upgrade' function, ownership should first\r\n  * be transferred manually to the ConverterUpgrader contract using the 'transferOwnership' function\r\n  * and then the upgrader 'upgrade' function should be executed directly.\r\n*/\r\ncontract BancorConverterUpgrader is IBancorConverterUpgrader, ContractRegistryClient, FeatureIds {\r\n    string public version = '0.3';\r\n\r\n    /**\r\n      * @dev triggered when the contract accept a converter ownership\r\n      * \r\n      * @param _converter   converter address\r\n      * @param _owner       new owner - local upgrader address\r\n    */\r\n    event ConverterOwned(address indexed _converter, address indexed _owner);\r\n\r\n    /**\r\n      * @dev triggered when the upgrading process is done\r\n      * \r\n      * @param _oldConverter    old converter address\r\n      * @param _newConverter    new converter address\r\n    */\r\n    event ConverterUpgrade(address indexed _oldConverter, address indexed _newConverter);\r\n\r\n    /**\r\n      * @dev initializes a new BancorConverterUpgrader instance\r\n      * \r\n      * @param _registry    address of a contract registry contract\r\n    */\r\n    constructor(IContractRegistry _registry) ContractRegistryClient(_registry) public {\r\n    }\r\n\r\n    /**\r\n      * @dev upgrades an old converter to the latest version\r\n      * will throw if ownership wasn't transferred to the upgrader before calling this function.\r\n      * ownership of the new converter will be transferred back to the original owner.\r\n      * fires the ConverterUpgrade event upon success.\r\n      * can only be called by a converter\r\n      * \r\n      * @param _version old converter version\r\n    */\r\n    function upgrade(bytes32 _version) public {\r\n        upgradeOld(IBancorConverter(msg.sender), _version);\r\n    }\r\n\r\n    /**\r\n      * @dev upgrades an old converter to the latest version\r\n      * will throw if ownership wasn't transferred to the upgrader before calling this function.\r\n      * ownership of the new converter will be transferred back to the original owner.\r\n      * fires the ConverterUpgrade event upon success.\r\n      * can only be called by a converter\r\n      * \r\n      * @param _version old converter version\r\n    */\r\n    function upgrade(uint16 _version) public {\r\n        upgradeOld(IBancorConverter(msg.sender), bytes32(_version));\r\n    }\r\n\r\n    /**\r\n      * @dev upgrades an old converter to the latest version\r\n      * will throw if ownership wasn't transferred to the upgrader before calling this function.\r\n      * ownership of the new converter will be transferred back to the original owner.\r\n      * fires the ConverterUpgrade event upon success.\r\n      * \r\n      * @param _converter   old converter contract address\r\n      * @param _version     old converter version\r\n    */\r\n    function upgradeOld(IBancorConverter _converter, bytes32 _version) public {\r\n        _version;\r\n        IBancorConverterExtended converter = IBancorConverterExtended(_converter);\r\n        address prevOwner = converter.owner();\r\n        acceptConverterOwnership(converter);\r\n        IBancorConverterExtended newConverter = createConverter(converter);\r\n        copyConnectors(converter, newConverter);\r\n        copyConversionFee(converter, newConverter);\r\n        transferConnectorsBalances(converter, newConverter);                \r\n        ISmartToken token = converter.token();\r\n\r\n        if (token.owner() == address(converter)) {\r\n            converter.transferTokenOwnership(newConverter);\r\n            newConverter.acceptTokenOwnership();\r\n        }\r\n\r\n        converter.transferOwnership(prevOwner);\r\n        newConverter.transferOwnership(prevOwner);\r\n        newConverter.transferManagement(prevOwner);\r\n\r\n        emit ConverterUpgrade(address(converter), address(newConverter));\r\n    }\r\n\r\n    /**\r\n      * @dev the first step when upgrading a converter is to transfer the ownership to the local contract.\r\n      * the upgrader contract then needs to accept the ownership transfer before initiating\r\n      * the upgrade process.\r\n      * fires the ConverterOwned event upon success\r\n      * \r\n      * @param _oldConverter       converter to accept ownership of\r\n    */\r\n    function acceptConverterOwnership(IBancorConverterExtended _oldConverter) private {\r\n        _oldConverter.acceptOwnership();\r\n        emit ConverterOwned(_oldConverter, this);\r\n    }\r\n\r\n    /**\r\n      * @dev creates a new converter with same basic data as the original old converter\r\n      * the newly created converter will have no connectors at this step.\r\n      * \r\n      * @param _oldConverter    old converter contract address\r\n      * \r\n      * @return the new converter  new converter contract address\r\n    */\r\n    function createConverter(IBancorConverterExtended _oldConverter) private returns(IBancorConverterExtended) {\r\n        IWhitelist whitelist;\r\n        ISmartToken token = _oldConverter.token();\r\n        uint32 maxConversionFee = _oldConverter.maxConversionFee();\r\n\r\n        IBancorConverterFactory converterFactory = IBancorConverterFactory(addressOf(BANCOR_CONVERTER_FACTORY));\r\n        address converterAddress = converterFactory.createConverter(\r\n            token,\r\n            registry,\r\n            maxConversionFee,\r\n            IERC20Token(address(0)),\r\n            0\r\n        );\r\n\r\n        IBancorConverterExtended converter = IBancorConverterExtended(converterAddress);\r\n        converter.acceptOwnership();\r\n        converter.acceptManagement();\r\n\r\n        // get the contract features address from the registry\r\n        IContractFeatures features = IContractFeatures(addressOf(CONTRACT_FEATURES));\r\n\r\n        if (features.isSupported(_oldConverter, FeatureIds.CONVERTER_CONVERSION_WHITELIST)) {\r\n            whitelist = _oldConverter.conversionWhitelist();\r\n            if (whitelist != address(0))\r\n                converter.setConversionWhitelist(whitelist);\r\n        }\r\n\r\n        return converter;\r\n    }\r\n\r\n    /**\r\n      * @dev copies the connectors from the old converter to the new one.\r\n      * note that this will not work for an unlimited number of connectors due to block gas limit constraints.\r\n      * \r\n      * @param _oldConverter    old converter contract address\r\n      * @param _newConverter    new converter contract address\r\n    */\r\n    function copyConnectors(IBancorConverterExtended _oldConverter, IBancorConverterExtended _newConverter)\r\n        private\r\n    {\r\n        uint256 virtualBalance;\r\n        uint32 weight;\r\n        bool isVirtualBalanceEnabled;\r\n        uint16 connectorTokenCount = _oldConverter.connectorTokenCount();\r\n\r\n        for (uint16 i = 0; i < connectorTokenCount; i++) {\r\n            address connectorAddress = _oldConverter.connectorTokens(i);\r\n            (virtualBalance, weight, isVirtualBalanceEnabled, , ) = _oldConverter.connectors(connectorAddress);\r\n\r\n            IERC20Token connectorToken = IERC20Token(connectorAddress);\r\n            _newConverter.addConnector(connectorToken, weight, isVirtualBalanceEnabled);\r\n\r\n            if (isVirtualBalanceEnabled)\r\n                _newConverter.updateConnector(connectorToken, weight, isVirtualBalanceEnabled, virtualBalance);\r\n        }\r\n    }\r\n\r\n    /**\r\n      * @dev copies the conversion fee from the old converter to the new one\r\n      * \r\n      * @param _oldConverter    old converter contract address\r\n      * @param _newConverter    new converter contract address\r\n    */\r\n    function copyConversionFee(IBancorConverterExtended _oldConverter, IBancorConverterExtended _newConverter) private {\r\n        uint32 conversionFee = _oldConverter.conversionFee();\r\n        _newConverter.setConversionFee(conversionFee);\r\n    }\r\n\r\n    /**\r\n      * @dev transfers the balance of each connector in the old converter to the new one.\r\n      * note that the function assumes that the new converter already has the exact same number of\r\n      * also, this will not work for an unlimited number of connectors due to block gas limit constraints.\r\n      * \r\n      * @param _oldConverter    old converter contract address\r\n      * @param _newConverter    new converter contract address\r\n    */\r\n    function transferConnectorsBalances(IBancorConverterExtended _oldConverter, IBancorConverterExtended _newConverter)\r\n        private\r\n    {\r\n        uint256 connectorBalance;\r\n        uint16 connectorTokenCount = _oldConverter.connectorTokenCount();\r\n\r\n        for (uint16 i = 0; i < connectorTokenCount; i++) {\r\n            address connectorAddress = _oldConverter.connectorTokens(i);\r\n            IERC20Token connector = IERC20Token(connectorAddress);\r\n            connectorBalance = connector.balanceOf(_oldConverter);\r\n            _oldConverter.withdrawTokens(connector, address(_newConverter), connectorBalance);\r\n        }\r\n    }\r\n}\r\n",
  "sourcePath": "/home/lash/src/home/grassroots/contracts/solidity/contracts/converter/BancorConverterUpgrader.sol",
  "compiler": {
    "name": "solc",
    "version": "0.4.26+commit.4563c3fc.Emscripten.clang"
  },
  "schemaVersion": "2.0.3",
  "updatedAt": "2020-03-22T14:20:02.203Z"
}