{
  "contractName": "BancorConverterRegistry",
  "abi": [
    {
      "constant": false,
      "inputs": [
        {
          "name": "_adminOnly",
          "type": "bool"
        }
      ],
      "name": "restrictRegistryUpdate",
      "outputs": [],
      "payable": false,
      "stateMutability": "nonpayable",
      "type": "function"
    },
    {
      "constant": false,
      "inputs": [],
      "name": "updateRegistry",
      "outputs": [],
      "payable": false,
      "stateMutability": "nonpayable",
      "type": "function"
    },
    {
      "constant": true,
      "inputs": [],
      "name": "prevRegistry",
      "outputs": [
        {
          "name": "",
          "type": "address"
        }
      ],
      "payable": false,
      "stateMutability": "view",
      "type": "function"
    },
    {
      "constant": false,
      "inputs": [],
      "name": "acceptOwnership",
      "outputs": [],
      "payable": false,
      "stateMutability": "nonpayable",
      "type": "function"
    },
    {
      "constant": true,
      "inputs": [],
      "name": "registry",
      "outputs": [
        {
          "name": "",
          "type": "address"
        }
      ],
      "payable": false,
      "stateMutability": "view",
      "type": "function"
    },
    {
      "constant": true,
      "inputs": [],
      "name": "owner",
      "outputs": [
        {
          "name": "",
          "type": "address"
        }
      ],
      "payable": false,
      "stateMutability": "view",
      "type": "function"
    },
    {
      "constant": false,
      "inputs": [],
      "name": "restoreRegistry",
      "outputs": [],
      "payable": false,
      "stateMutability": "nonpayable",
      "type": "function"
    },
    {
      "constant": true,
      "inputs": [],
      "name": "adminOnly",
      "outputs": [
        {
          "name": "",
          "type": "bool"
        }
      ],
      "payable": false,
      "stateMutability": "view",
      "type": "function"
    },
    {
      "constant": true,
      "inputs": [],
      "name": "newOwner",
      "outputs": [
        {
          "name": "",
          "type": "address"
        }
      ],
      "payable": false,
      "stateMutability": "view",
      "type": "function"
    },
    {
      "constant": false,
      "inputs": [
        {
          "name": "_newOwner",
          "type": "address"
        }
      ],
      "name": "transferOwnership",
      "outputs": [],
      "payable": false,
      "stateMutability": "nonpayable",
      "type": "function"
    },
    {
      "inputs": [
        {
          "name": "_registry",
          "type": "address"
        }
      ],
      "payable": false,
      "stateMutability": "nonpayable",
      "type": "constructor"
    },
    {
      "anonymous": false,
      "inputs": [
        {
          "indexed": true,
          "name": "_smartToken",
          "type": "address"
        }
      ],
      "name": "SmartTokenAdded",
      "type": "event"
    },
    {
      "anonymous": false,
      "inputs": [
        {
          "indexed": true,
          "name": "_smartToken",
          "type": "address"
        }
      ],
      "name": "SmartTokenRemoved",
      "type": "event"
    },
    {
      "anonymous": false,
      "inputs": [
        {
          "indexed": true,
          "name": "_liquidityPool",
          "type": "address"
        }
      ],
      "name": "LiquidityPoolAdded",
      "type": "event"
    },
    {
      "anonymous": false,
      "inputs": [
        {
          "indexed": true,
          "name": "_liquidityPool",
          "type": "address"
        }
      ],
      "name": "LiquidityPoolRemoved",
      "type": "event"
    },
    {
      "anonymous": false,
      "inputs": [
        {
          "indexed": true,
          "name": "_convertibleToken",
          "type": "address"
        },
        {
          "indexed": true,
          "name": "_smartToken",
          "type": "address"
        }
      ],
      "name": "ConvertibleTokenAdded",
      "type": "event"
    },
    {
      "anonymous": false,
      "inputs": [
        {
          "indexed": true,
          "name": "_convertibleToken",
          "type": "address"
        },
        {
          "indexed": true,
          "name": "_smartToken",
          "type": "address"
        }
      ],
      "name": "ConvertibleTokenRemoved",
      "type": "event"
    },
    {
      "anonymous": false,
      "inputs": [
        {
          "indexed": true,
          "name": "_prevOwner",
          "type": "address"
        },
        {
          "indexed": true,
          "name": "_newOwner",
          "type": "address"
        }
      ],
      "name": "OwnerUpdate",
      "type": "event"
    },
    {
      "constant": false,
      "inputs": [
        {
          "name": "_converter",
          "type": "address"
        }
      ],
      "name": "addConverter",
      "outputs": [],
      "payable": false,
      "stateMutability": "nonpayable",
      "type": "function"
    },
    {
      "constant": false,
      "inputs": [
        {
          "name": "_converter",
          "type": "address"
        }
      ],
      "name": "removeConverter",
      "outputs": [],
      "payable": false,
      "stateMutability": "nonpayable",
      "type": "function"
    },
    {
      "constant": true,
      "inputs": [],
      "name": "getSmartTokenCount",
      "outputs": [
        {
          "name": "",
          "type": "uint256"
        }
      ],
      "payable": false,
      "stateMutability": "view",
      "type": "function"
    },
    {
      "constant": true,
      "inputs": [],
      "name": "getSmartTokens",
      "outputs": [
        {
          "name": "",
          "type": "address[]"
        }
      ],
      "payable": false,
      "stateMutability": "view",
      "type": "function"
    },
    {
      "constant": true,
      "inputs": [
        {
          "name": "_index",
          "type": "uint256"
        }
      ],
      "name": "getSmartToken",
      "outputs": [
        {
          "name": "",
          "type": "address"
        }
      ],
      "payable": false,
      "stateMutability": "view",
      "type": "function"
    },
    {
      "constant": true,
      "inputs": [
        {
          "name": "_value",
          "type": "address"
        }
      ],
      "name": "isSmartToken",
      "outputs": [
        {
          "name": "",
          "type": "bool"
        }
      ],
      "payable": false,
      "stateMutability": "view",
      "type": "function"
    },
    {
      "constant": true,
      "inputs": [],
      "name": "getLiquidityPoolCount",
      "outputs": [
        {
          "name": "",
          "type": "uint256"
        }
      ],
      "payable": false,
      "stateMutability": "view",
      "type": "function"
    },
    {
      "constant": true,
      "inputs": [],
      "name": "getLiquidityPools",
      "outputs": [
        {
          "name": "",
          "type": "address[]"
        }
      ],
      "payable": false,
      "stateMutability": "view",
      "type": "function"
    },
    {
      "constant": true,
      "inputs": [
        {
          "name": "_index",
          "type": "uint256"
        }
      ],
      "name": "getLiquidityPool",
      "outputs": [
        {
          "name": "",
          "type": "address"
        }
      ],
      "payable": false,
      "stateMutability": "view",
      "type": "function"
    },
    {
      "constant": true,
      "inputs": [
        {
          "name": "_value",
          "type": "address"
        }
      ],
      "name": "isLiquidityPool",
      "outputs": [
        {
          "name": "",
          "type": "bool"
        }
      ],
      "payable": false,
      "stateMutability": "view",
      "type": "function"
    },
    {
      "constant": true,
      "inputs": [],
      "name": "getConvertibleTokenCount",
      "outputs": [
        {
          "name": "",
          "type": "uint256"
        }
      ],
      "payable": false,
      "stateMutability": "view",
      "type": "function"
    },
    {
      "constant": true,
      "inputs": [],
      "name": "getConvertibleTokens",
      "outputs": [
        {
          "name": "",
          "type": "address[]"
        }
      ],
      "payable": false,
      "stateMutability": "view",
      "type": "function"
    },
    {
      "constant": true,
      "inputs": [
        {
          "name": "_index",
          "type": "uint256"
        }
      ],
      "name": "getConvertibleToken",
      "outputs": [
        {
          "name": "",
          "type": "address"
        }
      ],
      "payable": false,
      "stateMutability": "view",
      "type": "function"
    },
    {
      "constant": true,
      "inputs": [
        {
          "name": "_value",
          "type": "address"
        }
      ],
      "name": "isConvertibleToken",
      "outputs": [
        {
          "name": "",
          "type": "bool"
        }
      ],
      "payable": false,
      "stateMutability": "view",
      "type": "function"
    },
    {
      "constant": true,
      "inputs": [
        {
          "name": "_convertibleToken",
          "type": "address"
        }
      ],
      "name": "getConvertibleTokenSmartTokenCount",
      "outputs": [
        {
          "name": "",
          "type": "uint256"
        }
      ],
      "payable": false,
      "stateMutability": "view",
      "type": "function"
    },
    {
      "constant": true,
      "inputs": [
        {
          "name": "_convertibleToken",
          "type": "address"
        }
      ],
      "name": "getConvertibleTokenSmartTokens",
      "outputs": [
        {
          "name": "",
          "type": "address[]"
        }
      ],
      "payable": false,
      "stateMutability": "view",
      "type": "function"
    },
    {
      "constant": true,
      "inputs": [
        {
          "name": "_convertibleToken",
          "type": "address"
        },
        {
          "name": "_index",
          "type": "uint256"
        }
      ],
      "name": "getConvertibleTokenSmartToken",
      "outputs": [
        {
          "name": "",
          "type": "address"
        }
      ],
      "payable": false,
      "stateMutability": "view",
      "type": "function"
    },
    {
      "constant": true,
      "inputs": [
        {
          "name": "_convertibleToken",
          "type": "address"
        },
        {
          "name": "_value",
          "type": "address"
        }
      ],
      "name": "isConvertibleTokenSmartToken",
      "outputs": [
        {
          "name": "",
          "type": "bool"
        }
      ],
      "payable": false,
      "stateMutability": "view",
      "type": "function"
    },
    {
      "constant": true,
      "inputs": [
        {
          "name": "_smartTokens",
          "type": "address[]"
        }
      ],
      "name": "getConvertersBySmartTokens",
      "outputs": [
        {
          "name": "",
          "type": "address[]"
        }
      ],
      "payable": false,
      "stateMutability": "view",
      "type": "function"
    },
    {
      "constant": true,
      "inputs": [
        {
          "name": "_converter",
          "type": "address"
        }
      ],
      "name": "isConverterValid",
      "outputs": [
        {
          "name": "",
          "type": "bool"
        }
      ],
      "payable": false,
      "stateMutability": "view",
      "type": "function"
    },
    {
      "constant": true,
      "inputs": [
        {
          "name": "_reserveTokens",
          "type": "address[]"
        },
        {
          "name": "_reserveRatios",
          "type": "uint256[]"
        }
      ],
      "name": "getLiquidityPoolByReserveConfig",
      "outputs": [
        {
          "name": "",
          "type": "address"
        }
      ],
      "payable": false,
      "stateMutability": "view",
      "type": "function"
    }
  ],
  "bytecode": "0x608060405234801561001057600080fd5b50604051602080612649833981016040525160008054600160a060020a031916331790558080600160a060020a038116151561004b57600080fd5b5060028054600160a060020a03909216600160a060020a0319928316811790915560038054909216179055506125c3806100866000396000f3006080604052600436106101715763ffffffff60e060020a600035041663024c7ec7811461017657806304ceaf41146101925780631f8e2620146101f75780633ab8857c146102175780634123ef601461024c57806349d10b641461026d5780635f1b50fe1461028257806361cd756e1461029757806369be4784146102c85780636ce1c4dc146102ef578063725b87861461031057806379ba5097146103375780637a5f0ffd1461034c5780637b103999146103615780637f45c4c3146103765780638181ebf41461038b578063865cf194146104195780638da5cb5b14610431578063954254f5146104465780639e76a00714610467578063a109d21414610488578063a43d5e94146104a0578063a74498aa146104c1578063b4a176d3146104d9578063c976a359146104ee578063d4ee1d9014610503578063d6c4b5b214610518578063e571049b1461053c578063e85455d714610551578063f2fde38b14610572578063f4fb86c014610593575b600080fd5b34801561018257600080fd5b5061019060043515156105b4565b005b34801561019e57600080fd5b506101a7610634565b60408051602080825283518183015283519192839290830191858101910280838360005b838110156101e35781810151838201526020016101cb565b505050509050019250505060405180910390f35b34801561020357600080fd5b506101a7600480356024810191013561071a565b34801561022357600080fd5b50610238600160a060020a0360043516610816565b604080519115158252519081900360200190f35b34801561025857600080fd5b50610238600160a060020a03600435166108bb565b34801561027957600080fd5b5061019061092e565b34801561028e57600080fd5b506101a7610ac7565b3480156102a357600080fd5b506102ac610b1d565b60408051600160a060020a039092168252519081900360200190f35b3480156102d457600080fd5b506102dd610b2c565b60408051918252519081900360200190f35b3480156102fb57600080fd5b50610190600160a060020a0360043516610bb3565b34801561031c57600080fd5b50610238600160a060020a0360043581169060243516610da8565b34801561034357600080fd5b50610190610e62565b34801561035857600080fd5b506102dd610eea565b34801561036d57600080fd5b506102ac610f40565b34801561038257600080fd5b506101a7610f4f565b34801561039757600080fd5b50604080516020600480358082013583810280860185019096528085526102ac95369593946024949385019291829185019084908082843750506040805187358901803560208181028481018201909552818452989b9a998901989297509082019550935083925085019084908082843750949750610fa59650505050505050565b34801561042557600080fd5b506102ac600435611096565b34801561043d57600080fd5b506102ac6110f7565b34801561045257600080fd5b50610238600160a060020a0360043516611106565b34801561047357600080fd5b50610190600160a060020a0360043516611502565b34801561049457600080fd5b506102ac600435611707565b3480156104ac57600080fd5b506102dd600160a060020a0360043516611768565b3480156104cd57600080fd5b506102ac6004356117db565b3480156104e557600080fd5b5061019061183c565b3480156104fa57600080fd5b50610238611880565b34801561050f57600080fd5b506102ac6118a1565b34801561052457600080fd5b506102ac600160a060020a03600435166024356118b0565b34801561054857600080fd5b506102dd61192b565b34801561055d57600080fd5b50610238600160a060020a0360043516611981565b34801561057e57600080fd5b50610190600160a060020a03600435166119f4565b34801561059f57600080fd5b506101a7600160a060020a0360043516611a55565b60035460ff74010000000000000000000000000000000000000000909104161515811515148015906105e957506105e9611b59565b15156105f457600080fd5b60038054911515740100000000000000000000000000000000000000000274ff000000000000000000000000000000000000000019909216919091179055565b606061064d600080516020612578833981519152611b6a565b600160a060020a03166304ceaf416040518163ffffffff1660e060020a028152600401600060405180830381600087803b15801561068a57600080fd5b505af115801561069e573d6000803e3d6000fd5b505050506040513d6000823e601f3d908101601f1916820160405260208110156106c757600080fd5b8101908080516401000000008111156106df57600080fd5b820160208101848111156106f257600080fd5b815185602082028301116401000000008211171561070f57600080fd5b509094505050505090565b60608060008484905060405190808252806020026020018201604052801561074c578160200160208202803883390190505b509150600090505b8381101561080e5784848281811061076857fe5b90506020020135600160a060020a0316600160a060020a0316638da5cb5b6040518163ffffffff1660e060020a028152600401602060405180830381600087803b1580156107b557600080fd5b505af11580156107c9573d6000803e3d6000fd5b505050506040513d60208110156107df57600080fd5b505182518390839081106107ef57fe5b600160a060020a03909216602092830290910190910152600101610754565b509392505050565b600061082f600080516020612578833981519152611b6a565b600160a060020a0316633ab8857c836040518263ffffffff1660e060020a0281526004018082600160a060020a0316600160a060020a03168152602001915050602060405180830381600087803b15801561088957600080fd5b505af115801561089d573d6000803e3d6000fd5b505050506040513d60208110156108b357600080fd5b505192915050565b60006108d4600080516020612578833981519152611b6a565b600160a060020a0316634123ef60836040518263ffffffff1660e060020a0281526004018082600160a060020a0316600160a060020a03168152602001915050602060405180830381600087803b15801561088957600080fd5b60035460009074010000000000000000000000000000000000000000900460ff16158061095e575061095e611b59565b151561096957600080fd5b6109927f436f6e7472616374526567697374727900000000000000000000000000000000611b6a565b600254909150600160a060020a038083169116148015906109bb5750600160a060020a03811615155b15156109c657600080fd5b604080517fbb34534c0000000000000000000000000000000000000000000000000000000081527f436f6e747261637452656769737472790000000000000000000000000000000060048201529051600091600160a060020a0384169163bb34534c9160248082019260209290919082900301818787803b158015610a4a57600080fd5b505af1158015610a5e573d6000803e3d6000fd5b505050506040513d6020811015610a7457600080fd5b5051600160a060020a03161415610a8a57600080fd5b6002805460038054600160a060020a0380841673ffffffffffffffffffffffffffffffffffffffff19928316179092559091169216919091179055565b6060610ae0600080516020612578833981519152611b6a565b600160a060020a0316635f1b50fe6040518163ffffffff1660e060020a028152600401600060405180830381600087803b15801561068a57600080fd5b600354600160a060020a031681565b6000610b45600080516020612578833981519152611b6a565b600160a060020a03166369be47846040518163ffffffff1660e060020a028152600401602060405180830381600087803b158015610b8257600080fd5b505af1158015610b96573d6000803e3d6000fd5b505050506040513d6020811015610bac57600080fd5b5051905090565b600080600080610bc285611106565b1515610bcd57600080fd5b610be4600080516020612578833981519152611b6a565b935084600160a060020a031663fc0c546a6040518163ffffffff1660e060020a028152600401602060405180830381600087803b158015610c2457600080fd5b505af1158015610c38573d6000803e3d6000fd5b505050506040513d6020811015610c4e57600080fd5b5051604080517f71f52bf30000000000000000000000000000000000000000000000000000000081529051919450600160a060020a038716916371f52bf3916004808201926020929091908290030181600087803b158015610caf57600080fd5b505af1158015610cc3573d6000803e3d6000fd5b505050506040513d6020811015610cd957600080fd5b505161ffff169150610ceb8484611bd0565b6001821115610d0357610cfe8484611c7b565b610d0e565b610d0e848485611d26565b5060005b81811015610da157610d998486600160a060020a03166319b64015846040518263ffffffff1660e060020a02815260040180828152602001915050602060405180830381600087803b158015610d6757600080fd5b505af1158015610d7b573d6000803e3d6000fd5b505050506040513d6020811015610d9157600080fd5b505185611d26565b600101610d12565b5050505050565b6000610dc1600080516020612578833981519152611b6a565b604080517f725b8786000000000000000000000000000000000000000000000000000000008152600160a060020a03868116600483015285811660248301529151929091169163725b8786916044808201926020929091908290030181600087803b158015610e2f57600080fd5b505af1158015610e43573d6000803e3d6000fd5b505050506040513d6020811015610e5957600080fd5b50519392505050565b600154600160a060020a03163314610e7957600080fd5b60015460008054604051600160a060020a0393841693909116917f343765429aea5a34b3ff6a3785a98a5abb2597aca87bfbb58632c173d585373a91a3600180546000805473ffffffffffffffffffffffffffffffffffffffff19908116600160a060020a03841617909155169055565b6000610f03600080516020612578833981519152611b6a565b600160a060020a0316637a5f0ffd6040518163ffffffff1660e060020a028152600401602060405180830381600087803b158015610b8257600080fd5b600254600160a060020a031681565b6060610f68600080516020612578833981519152611b6a565b600160a060020a0316637f45c4c36040518163ffffffff1660e060020a028152600401600060405180830381600087803b15801561068a57600080fd5b60006060600080600085518751148015610fc0575060018751115b1561108757610fce87611de7565b9350600092505b8351831015611087578383815181101515610fec57fe5b90602001906020020151915081600160a060020a0316638da5cb5b6040518163ffffffff1660e060020a028152600401602060405180830381600087803b15801561103657600080fd5b505af115801561104a573d6000803e3d6000fd5b505050506040513d602081101561106057600080fd5b5051905061106f81888861217d565b1561107c5781945061108c565b600190920191610fd5565b600094505b5050505092915050565b60006110af600080516020612578833981519152611b6a565b600160a060020a031663865cf194836040518263ffffffff1660e060020a02815260040180828152602001915050602060405180830381600087803b15801561088957600080fd5b600054600160a060020a031681565b600080600060608060008087600160a060020a031663fc0c546a6040518163ffffffff1660e060020a028152600401602060405180830381600087803b15801561114f57600080fd5b505af1158015611163573d6000803e3d6000fd5b505050506040513d602081101561117957600080fd5b5051604080517f18160ddd0000000000000000000000000000000000000000000000000000000081529051919750600160a060020a038816916318160ddd916004808201926020929091908290030181600087803b1580156111da57600080fd5b505af11580156111ee573d6000803e3d6000fd5b505050506040513d602081101561120457600080fd5b5051158061128d575087600160a060020a031686600160a060020a0316638da5cb5b6040518163ffffffff1660e060020a028152600401602060405180830381600087803b15801561125557600080fd5b505af1158015611269573d6000803e3d6000fd5b505050506040513d602081101561127f57600080fd5b5051600160a060020a031614155b1561129b57600096506114f7565b87600160a060020a03166371f52bf36040518163ffffffff1660e060020a028152600401602060405180830381600087803b1580156112d957600080fd5b505af11580156112ed573d6000803e3d6000fd5b505050506040513d602081101561130357600080fd5b50516040805161ffff90921680835260208181028401019091529550858015611336578160200160208202803883390190505b50935084604051908082528060200260200182016040528015611363578160200160208202803883390190505b509250600091505b848210156114de5787600160a060020a03166319b64015836040518263ffffffff1660e060020a02815260040180828152602001915050602060405180830381600087803b1580156113bc57600080fd5b505af11580156113d0573d6000803e3d6000fd5b505050506040513d60208110156113e657600080fd5b5051604080517f70a08231000000000000000000000000000000000000000000000000000000008152600160a060020a038b811660048301529151929350908316916370a08231916024808201926020929091908290030181600087803b15801561145057600080fd5b505af1158015611464573d6000803e3d6000fd5b505050506040513d602081101561147a57600080fd5b5051151561148b57600096506114f7565b80848381518110151561149a57fe5b600160a060020a039092166020928302909101909101526114bb8882612267565b83838151811015156114c957fe5b6020908102909101015260019091019061136b565b60006114ea8585610fa5565b600160a060020a03161496505b505050505050919050565b60008054819081908190600160a060020a0316331480611528575061152685611106565b155b151561153357600080fd5b61154a600080516020612578833981519152611b6a565b935084600160a060020a031663fc0c546a6040518163ffffffff1660e060020a028152600401602060405180830381600087803b15801561158a57600080fd5b505af115801561159e573d6000803e3d6000fd5b505050506040513d60208110156115b457600080fd5b5051604080517f71f52bf30000000000000000000000000000000000000000000000000000000081529051919450600160a060020a038716916371f52bf3916004808201926020929091908290030181600087803b15801561161557600080fd5b505af1158015611629573d6000803e3d6000fd5b505050506040513d602081101561163f57600080fd5b505161ffff1691506116518484612345565b60018211156116695761166484846123f0565b611674565b61167484848561249b565b5060005b81811015610da1576116ff8486600160a060020a03166319b64015846040518263ffffffff1660e060020a02815260040180828152602001915050602060405180830381600087803b1580156116cd57600080fd5b505af11580156116e1573d6000803e3d6000fd5b505050506040513d60208110156116f757600080fd5b50518561249b565b600101611678565b6000611720600080516020612578833981519152611b6a565b600160a060020a031663a109d214836040518263ffffffff1660e060020a02815260040180828152602001915050602060405180830381600087803b15801561088957600080fd5b6000611781600080516020612578833981519152611b6a565b600160a060020a031663a43d5e94836040518263ffffffff1660e060020a0281526004018082600160a060020a0316600160a060020a03168152602001915050602060405180830381600087803b15801561088957600080fd5b60006117f4600080516020612578833981519152611b6a565b600160a060020a031663a74498aa836040518263ffffffff1660e060020a02815260040180828152602001915050602060405180830381600087803b15801561088957600080fd5b611844611b59565b151561184f57600080fd5b6003546002805473ffffffffffffffffffffffffffffffffffffffff1916600160a060020a03909216919091179055565b60035474010000000000000000000000000000000000000000900460ff1681565b600154600160a060020a031681565b60006118c9600080516020612578833981519152611b6a565b600160a060020a031663d6c4b5b284846040518363ffffffff1660e060020a0281526004018083600160a060020a0316600160a060020a0316815260200182815260200192505050602060405180830381600087803b158015610e2f57600080fd5b6000611944600080516020612578833981519152611b6a565b600160a060020a031663e571049b6040518163ffffffff1660e060020a028152600401602060405180830381600087803b158015610b8257600080fd5b600061199a600080516020612578833981519152611b6a565b600160a060020a031663e85455d7836040518263ffffffff1660e060020a0281526004018082600160a060020a0316600160a060020a03168152602001915050602060405180830381600087803b15801561088957600080fd5b600054600160a060020a03163314611a0b57600080fd5b600054600160a060020a0382811691161415611a2657600080fd5b6001805473ffffffffffffffffffffffffffffffffffffffff1916600160a060020a0392909216919091179055565b6060611a6e600080516020612578833981519152611b6a565b600160a060020a031663f4fb86c0836040518263ffffffff1660e060020a0281526004018082600160a060020a0316600160a060020a03168152602001915050600060405180830381600087803b158015611ac857600080fd5b505af1158015611adc573d6000803e3d6000fd5b505050506040513d6000823e601f3d908101601f191682016040526020811015611b0557600080fd5b810190808051640100000000811115611b1d57600080fd5b82016020810184811115611b3057600080fd5b8151856020820283011164010000000082111715611b4d57600080fd5b50909695505050505050565b600054600160a060020a0316331490565b600254604080517fbb34534c000000000000000000000000000000000000000000000000000000008152600481018490529051600092600160a060020a03169163bb34534c91602480830192602092919082900301818787803b15801561088957600080fd5b81600160a060020a0316638de6c3eb826040518263ffffffff1660e060020a0281526004018082600160a060020a0316600160a060020a03168152602001915050600060405180830381600087803b158015611c2b57600080fd5b505af1158015611c3f573d6000803e3d6000fd5b5050604051600160a060020a03841692507f88881feecdf61136ac4bdb1f681f2f3746a82910263d21ffea94750d2a78c0ab9150600090a25050565b81600160a060020a031663ee6a934c826040518263ffffffff1660e060020a0281526004018082600160a060020a0316600160a060020a03168152602001915050600060405180830381600087803b158015611cd657600080fd5b505af1158015611cea573d6000803e3d6000fd5b5050604051600160a060020a03841692507fb893f883ef734b712208a877459424ee509832c57e0461fb1ac99ed4d42f2d899150600090a25050565b604080517f36900c11000000000000000000000000000000000000000000000000000000008152600160a060020a03848116600483015283811660248301529151918516916336900c119160448082019260009290919082900301818387803b158015611d9257600080fd5b505af1158015611da6573d6000803e3d6000fd5b5050604051600160a060020a038085169350851691507ff2e7cf6d6ed3f77039511409a43d4fa5108f09ab71d72b014380364c910233a590600090a3505050565b60606000806060600080611e08600080516020612578833981519152611b6a565b945084600160a060020a031663a43d5e94886000815181101515611e2857fe5b906020019060200201516040518263ffffffff1660e060020a0281526004018082600160a060020a0316600160a060020a03168152602001915050602060405180830381600087803b158015611e7d57600080fd5b505af1158015611e91573d6000803e3d6000fd5b505050506040513d6020811015611ea757600080fd5b50518751909450600160a060020a0386169063f4fb86c09089906000908110611ecc57fe5b906020019060200201516040518263ffffffff1660e060020a0281526004018082600160a060020a0316600160a060020a03168152602001915050600060405180830381600087803b158015611f2157600080fd5b505af1158015611f35573d6000803e3d6000fd5b505050506040513d6000823e601f3d908101601f191682016040526020811015611f5e57600080fd5b810190808051640100000000811115611f7657600080fd5b82016020810184811115611f8957600080fd5b8151856020820283011164010000000082111715611fa657600080fd5b5090965060019550505050505b86518210156121725784600160a060020a031663a43d5e948884815181101515611fd957fe5b906020019060200201516040518263ffffffff1660e060020a0281526004018082600160a060020a0316600160a060020a03168152602001915050602060405180830381600087803b15801561202e57600080fd5b505af1158015612042573d6000803e3d6000fd5b505050506040513d602081101561205857600080fd5b50519050808411156121675780935084600160a060020a031663f4fb86c0888481518110151561208457fe5b906020019060200201516040518263ffffffff1660e060020a0281526004018082600160a060020a0316600160a060020a03168152602001915050600060405180830381600087803b1580156120d957600080fd5b505af11580156120ed573d6000803e3d6000fd5b505050506040513d6000823e601f3d908101601f19168201604052602081101561211657600080fd5b81019080805164010000000081111561212e57600080fd5b8201602081018481111561214157600080fd5b815185602082028301116401000000008211171561215e57600080fd5b50909650505050505b600190910190611fb3565b509095945050505050565b60008084600160a060020a03166371f52bf36040518163ffffffff1660e060020a028152600401602060405180830381600087803b1580156121be57600080fd5b505af11580156121d2573d6000803e3d6000fd5b505050506040513d60208110156121e857600080fd5b5051845161ffff90911614612200576000915061080e565b5060005b835181101561225c5761222e85858381518110151561221f57fe5b90602001906020020151612267565b838281518110151561223c57fe5b6020908102909101015114612254576000915061080e565b600101612204565b506001949350505050565b600061227161255c565b604080517f636f6e6e6563746f72732861646472657373290000000000000000000000000081528151908190036013018120600160a060020a03861660248084019190915283518084039091018152604490920183526020820180517bffffffffffffffffffffffffffffffffffffffffffffffffffffffff167fffffffff0000000000000000000000000000000000000000000000000000000060e060020a938490049093029290921691909117815281519192918491885afa80151561233857600080fd5b5050602001519392505050565b81600160a060020a031663ceb9838c826040518263ffffffff1660e060020a0281526004018082600160a060020a0316600160a060020a03168152602001915050600060405180830381600087803b1580156123a057600080fd5b505af11580156123b4573d6000803e3d6000fd5b5050604051600160a060020a03841692507f2aff63790c7da80d1c50ede92d23bc841c384837735c92c184331f3d7b91e5bf9150600090a25050565b81600160a060020a031663ae22107f826040518263ffffffff1660e060020a0281526004018082600160a060020a0316600160a060020a03168152602001915050600060405180830381600087803b15801561244b57600080fd5b505af115801561245f573d6000803e3d6000fd5b5050604051600160a060020a03841692507f59c3fbcae88f30e9b0e35c132a7f68c53231dffa4722f197c7ecb0ee013eee609150600090a25050565b604080517ffba8f031000000000000000000000000000000000000000000000000000000008152600160a060020a038481166004830152838116602483015291519185169163fba8f0319160448082019260009290919082900301818387803b15801561250757600080fd5b505af115801561251b573d6000803e3d6000fd5b5050604051600160a060020a038085169350851691507f9430ad6ff45d6c3e126c7711bf0036bd9bc6b202fa19628abd88e59cf43ced4390600090a3505050565b60408051808201825290600290829080388339509192915050560042616e636f72436f6e7665727465725265676973747279446174610000000000a165627a7a723058203414afb6faee35c42ca7b9c77ad3faa1d17ae8fa56053a642de1aed2c9fbe6b40029",
  "source": "pragma solidity 0.4.26;\r\nimport '../utility/ContractRegistryClient.sol';\r\nimport './interfaces/IBancorConverterRegistry.sol';\r\nimport './interfaces/IBancorConverterRegistryData.sol';\r\nimport '../token/interfaces/ISmartToken.sol';\r\nimport '../token/interfaces/ISmartTokenController.sol';\r\n\r\n/**\r\n  * @dev The BancorConverterRegistry maintains a list of all active converters in the Bancor Network.\r\n  *\r\n  * Since converters can be upgraded and thus their address can change, the registry actually keeps smart tokens internally and not the converters themselves.\r\n  * The active converter for each smart token can be easily accessed by querying the smart token owner.\r\n  *\r\n  * The registry exposes 3 differnet lists that can be accessed and iterated, based on the use-case of the caller:\r\n  * - Smart tokens - can be used to get all the latest / historical data in the network\r\n  * - Liquidity pools - can be used to get all liquidity pools for funding, liquidation etc.\r\n  * - Convertible tokens - can be used to get all tokens that can be converted in the network (excluding pool\r\n  *   tokens), and for each one - all smart tokens that hold it in their reserves\r\n  *\r\n  *\r\n  * The contract fires events whenever one of the primitives is added to or removed from the registry\r\n  *\r\n  * The contract is upgradable.\r\n*/\r\ncontract BancorConverterRegistry is IBancorConverterRegistry, ContractRegistryClient {\r\n    /**\r\n      * @dev triggered when a smart token is added to the registry\r\n      * \r\n      * @param _smartToken smart token\r\n    */\r\n    event SmartTokenAdded(address indexed _smartToken);\r\n\r\n    /**\r\n      * @dev triggered when a smart token is removed from the registry\r\n      * \r\n      * @param _smartToken smart token\r\n    */\r\n    event SmartTokenRemoved(address indexed _smartToken);\r\n\r\n    /**\r\n      * @dev triggered when a liquidity pool is added to the registry\r\n      * \r\n      * @param _liquidityPool liquidity pool\r\n    */\r\n    event LiquidityPoolAdded(address indexed _liquidityPool);\r\n\r\n    /**\r\n      * @dev triggered when a liquidity pool is removed from the registry\r\n      * \r\n      * @param _liquidityPool liquidity pool\r\n    */\r\n    event LiquidityPoolRemoved(address indexed _liquidityPool);\r\n\r\n    /**\r\n      * @dev triggered when a convertible token is added to the registry\r\n      * \r\n      * @param _convertibleToken convertible token\r\n      * @param _smartToken associated smart token\r\n    */\r\n    event ConvertibleTokenAdded(address indexed _convertibleToken, address indexed _smartToken);\r\n\r\n    /**\r\n      * @dev triggered when a convertible token is removed from the registry\r\n      * \r\n      * @param _convertibleToken convertible token\r\n      * @param _smartToken associated smart token\r\n    */\r\n    event ConvertibleTokenRemoved(address indexed _convertibleToken, address indexed _smartToken);\r\n\r\n    /**\r\n      * @dev initializes a new BancorConverterRegistry instance\r\n      * \r\n      * @param _registry address of a contract registry contract\r\n    */\r\n    constructor(IContractRegistry _registry) ContractRegistryClient(_registry) public {\r\n    }\r\n\r\n    /**\r\n      * @dev adds a converter to the registry\r\n      * anyone can add a converter to the registry, as long as the converter is active and valid\r\n      * note that a liquidity pool converter can only be added if there's no existing pool with the same reserve configuration\r\n      * \r\n      * @param _converter converter\r\n    */\r\n    function addConverter(IBancorConverter _converter) external {\r\n        // validate input\r\n        require(isConverterValid(_converter));\r\n\r\n        IBancorConverterRegistryData converterRegistryData = IBancorConverterRegistryData(addressOf(BANCOR_CONVERTER_REGISTRY_DATA));\r\n        ISmartToken token = ISmartTokenController(_converter).token();\r\n        uint reserveTokenCount = _converter.connectorTokenCount();\r\n\r\n        // add the smart token\r\n        addSmartToken(converterRegistryData, token);\r\n        if (reserveTokenCount > 1)\r\n            addLiquidityPool(converterRegistryData, token);\r\n        else\r\n            addConvertibleToken(converterRegistryData, token, token);\r\n\r\n        // add all reserve tokens\r\n        for (uint i = 0; i < reserveTokenCount; i++)\r\n            addConvertibleToken(converterRegistryData, _converter.connectorTokens(i), token);\r\n    }\r\n\r\n    /**\r\n      * @dev removes a converter from the registry\r\n      * anyone can remove invalid or inactive converters from the registry\r\n      * note that the owner can also remove valid converters\r\n      * \r\n      * @param _converter converter\r\n    */\r\n    function removeConverter(IBancorConverter _converter) external {\r\n      // validate input\r\n        require(msg.sender == owner || !isConverterValid(_converter));\r\n\r\n        IBancorConverterRegistryData converterRegistryData = IBancorConverterRegistryData(addressOf(BANCOR_CONVERTER_REGISTRY_DATA));\r\n        ISmartToken token = ISmartTokenController(_converter).token();\r\n        uint reserveTokenCount = _converter.connectorTokenCount();\r\n\r\n        // remove the smart token\r\n        removeSmartToken(converterRegistryData, token);\r\n        if (reserveTokenCount > 1)\r\n            removeLiquidityPool(converterRegistryData, token);\r\n        else\r\n            removeConvertibleToken(converterRegistryData, token, token);\r\n\r\n        // remove all reserve tokens\r\n        for (uint i = 0; i < reserveTokenCount; i++)\r\n            removeConvertibleToken(converterRegistryData, _converter.connectorTokens(i), token);\r\n    }\r\n\r\n    /**\r\n      * @dev returns the number of smart tokens in the registry\r\n      * \r\n      * @return number of smart tokens\r\n    */\r\n    function getSmartTokenCount() external view returns (uint) {\r\n        return IBancorConverterRegistryData(addressOf(BANCOR_CONVERTER_REGISTRY_DATA)).getSmartTokenCount();\r\n    }\r\n\r\n    /**\r\n      * @dev returns the list of smart tokens in the registry\r\n      * \r\n      * @return list of smart tokens\r\n    */\r\n    function getSmartTokens() external view returns (address[]) {\r\n        return IBancorConverterRegistryData(addressOf(BANCOR_CONVERTER_REGISTRY_DATA)).getSmartTokens();\r\n    }\r\n\r\n    /**\r\n      * @dev returns the smart token at a given index\r\n      * \r\n      * @param _index index\r\n      * @return smart token at the given index\r\n    */\r\n    function getSmartToken(uint _index) external view returns (address) {\r\n        return IBancorConverterRegistryData(addressOf(BANCOR_CONVERTER_REGISTRY_DATA)).getSmartToken(_index);\r\n    }\r\n\r\n    /**\r\n      * @dev checks whether or not a given value is a smart token\r\n      * \r\n      * @param _value value\r\n      * @return true if the given value is a smart token, false if not\r\n    */\r\n    function isSmartToken(address _value) external view returns (bool) {\r\n        return IBancorConverterRegistryData(addressOf(BANCOR_CONVERTER_REGISTRY_DATA)).isSmartToken(_value);\r\n    }\r\n\r\n    /**\r\n      * @dev returns the number of liquidity pools in the registry\r\n      * \r\n      * @return number of liquidity pools\r\n    */\r\n    function getLiquidityPoolCount() external view returns (uint) {\r\n        return IBancorConverterRegistryData(addressOf(BANCOR_CONVERTER_REGISTRY_DATA)).getLiquidityPoolCount();\r\n    }\r\n\r\n    /**\r\n      * @dev returns the list of liquidity pools in the registry\r\n      * \r\n      * @return list of liquidity pools\r\n    */\r\n    function getLiquidityPools() external view returns (address[]) {\r\n        return IBancorConverterRegistryData(addressOf(BANCOR_CONVERTER_REGISTRY_DATA)).getLiquidityPools();\r\n    }\r\n\r\n    /**\r\n      * @dev returns the liquidity pool at a given index\r\n      * \r\n      * @param _index index\r\n      * @return liquidity pool at the given index\r\n    */\r\n    function getLiquidityPool(uint _index) external view returns (address) {\r\n        return IBancorConverterRegistryData(addressOf(BANCOR_CONVERTER_REGISTRY_DATA)).getLiquidityPool(_index);\r\n    }\r\n\r\n    /**\r\n      * @dev checks whether or not a given value is a liquidity pool\r\n      * \r\n      * @param _value value\r\n      * @return true if the given value is a liquidity pool, false if not\r\n    */\r\n    function isLiquidityPool(address _value) external view returns (bool) {\r\n        return IBancorConverterRegistryData(addressOf(BANCOR_CONVERTER_REGISTRY_DATA)).isLiquidityPool(_value);\r\n    }\r\n\r\n    /**\r\n      * @dev returns the number of convertible tokens in the registry\r\n      * \r\n      * @return number of convertible tokens\r\n    */\r\n    function getConvertibleTokenCount() external view returns (uint) {\r\n        return IBancorConverterRegistryData(addressOf(BANCOR_CONVERTER_REGISTRY_DATA)).getConvertibleTokenCount();\r\n    }\r\n\r\n    /**\r\n      * @dev returns the list of convertible tokens in the registry\r\n      * \r\n      * @return list of convertible tokens\r\n    */\r\n    function getConvertibleTokens() external view returns (address[]) {\r\n        return IBancorConverterRegistryData(addressOf(BANCOR_CONVERTER_REGISTRY_DATA)).getConvertibleTokens();\r\n    }\r\n\r\n    /**\r\n      * @dev returns the convertible token at a given index\r\n      * \r\n      * @param _index index\r\n      * @return convertible token at the given index\r\n    */\r\n    function getConvertibleToken(uint _index) external view returns (address) {\r\n        return IBancorConverterRegistryData(addressOf(BANCOR_CONVERTER_REGISTRY_DATA)).getConvertibleToken(_index);\r\n    }\r\n\r\n    /**\r\n      * @dev checks whether or not a given value is a convertible token\r\n      * \r\n      * @param _value value\r\n      * @return true if the given value is a convertible token, false if not\r\n    */\r\n    function isConvertibleToken(address _value) external view returns (bool) {\r\n        return IBancorConverterRegistryData(addressOf(BANCOR_CONVERTER_REGISTRY_DATA)).isConvertibleToken(_value);\r\n    }\r\n\r\n    /**\r\n      * @dev returns the number of smart tokens associated with a given convertible token\r\n      * \r\n      * @param _convertibleToken convertible token\r\n      * @return number of smart tokens associated with the given convertible token\r\n    */\r\n    function getConvertibleTokenSmartTokenCount(address _convertibleToken) external view returns (uint) {\r\n        return IBancorConverterRegistryData(addressOf(BANCOR_CONVERTER_REGISTRY_DATA)).getConvertibleTokenSmartTokenCount(_convertibleToken);\r\n    }\r\n\r\n    /**\r\n      * @dev returns the list of smart tokens associated with a given convertible token\r\n      * \r\n      * @param _convertibleToken convertible token\r\n      * @return list of smart tokens associated with the given convertible token\r\n    */\r\n    function getConvertibleTokenSmartTokens(address _convertibleToken) external view returns (address[]) {\r\n        return IBancorConverterRegistryData(addressOf(BANCOR_CONVERTER_REGISTRY_DATA)).getConvertibleTokenSmartTokens(_convertibleToken);\r\n    }\r\n\r\n    /**\r\n      * @dev returns the smart token associated with a given convertible token at a given index\r\n      * \r\n      * @param _index index\r\n      * @return smart token associated with the given convertible token at the given index\r\n    */\r\n    function getConvertibleTokenSmartToken(address _convertibleToken, uint _index) external view returns (address) {\r\n        return IBancorConverterRegistryData(addressOf(BANCOR_CONVERTER_REGISTRY_DATA)).getConvertibleTokenSmartToken(_convertibleToken, _index);\r\n    }\r\n\r\n    /**\r\n      * @dev checks whether or not a given value is a smart token of a given convertible token\r\n      * \r\n      * @param _convertibleToken convertible token\r\n      * @param _value value\r\n      * @return true if the given value is a smart token of the given convertible token, false if not\r\n    */\r\n    function isConvertibleTokenSmartToken(address _convertibleToken, address _value) external view returns (bool) {\r\n        return IBancorConverterRegistryData(addressOf(BANCOR_CONVERTER_REGISTRY_DATA)).isConvertibleTokenSmartToken(_convertibleToken, _value);\r\n    }\r\n\r\n    /**\r\n      * @dev returns a list of converters for a given list of smart tokens\r\n      * this is a utility function that can be used to reduce the number of calls to the contract\r\n      * \r\n      * @param _smartTokens list of smart tokens\r\n      * @return list of converters\r\n    */\r\n    function getConvertersBySmartTokens(address[] _smartTokens) external view returns (address[]) {\r\n        address[] memory converters = new address[](_smartTokens.length);\r\n\r\n        for (uint i = 0; i < _smartTokens.length; i++)\r\n            converters[i] = ISmartToken(_smartTokens[i]).owner();\r\n\r\n        return converters;\r\n    }\r\n\r\n    /**\r\n      * @dev checks whether or not a given converter is valid\r\n      * \r\n      * @param _converter converter\r\n      * @return true if the given converter is valid, false if not\r\n    */\r\n    function isConverterValid(IBancorConverter _converter) public view returns (bool) {\r\n        ISmartToken token = ISmartTokenController(_converter).token();\r\n\r\n        // verifies the the smart token has a supply and that the converter is active\r\n        if (token.totalSupply() == 0 || token.owner() != address(_converter))\r\n            return false;\r\n\r\n        uint reserveTokenCount = _converter.connectorTokenCount();\r\n        address[] memory reserveTokens = new address[](reserveTokenCount);\r\n        uint[] memory reserveRatios = new uint[](reserveTokenCount);\r\n\r\n        // verifies that the converter holds balance in each of its reserves\r\n        for (uint i = 0; i < reserveTokenCount; i++) {\r\n            IERC20Token reserveToken = _converter.connectorTokens(i);\r\n            if (reserveToken.balanceOf(_converter) == 0)\r\n                return false;\r\n            reserveTokens[i] = reserveToken;\r\n            reserveRatios[i] = getReserveRatio(_converter, reserveToken);\r\n        }\r\n\r\n        return getLiquidityPoolByReserveConfig(reserveTokens, reserveRatios) == ISmartToken(0);\r\n    }\r\n\r\n    /**\r\n      * @dev searches for a liquidity pool with specific reserve tokens / ratios\r\n      * \r\n      * @param _reserveTokens   reserve tokens\r\n      * @param _reserveRatios   reserve ratios\r\n      * @return the liquidity pool, or zero if no such liquidity pool exists\r\n    */\r\n    function getLiquidityPoolByReserveConfig(address[] memory _reserveTokens, uint[] memory _reserveRatios) public view returns (ISmartToken) {\r\n        // validate input - ensure that the number of reserve tokens match the number of reserve ratio\r\n        if (_reserveTokens.length == _reserveRatios.length && _reserveTokens.length > 1) {\r\n            // get the smart tokens of the least frequent token (optimization)\r\n            address[] memory convertibleTokenSmartTokens = getLeastFrequentTokenSmartTokens(_reserveTokens);\r\n            // search for a converter with an identical reserve-configuration\r\n            for (uint i = 0; i < convertibleTokenSmartTokens.length; i++) {\r\n                ISmartToken smartToken = ISmartToken(convertibleTokenSmartTokens[i]);\r\n                IBancorConverter converter = IBancorConverter(smartToken.owner());\r\n                if (isConverterReserveConfigEqual(converter, _reserveTokens, _reserveRatios))\r\n                    return smartToken;\r\n            }\r\n        }\r\n\r\n        return ISmartToken(0);\r\n    }\r\n\r\n    /**\r\n      * @dev adds a smart token to the registry\r\n      * \r\n      * @param _smartToken smart token\r\n    */\r\n    function addSmartToken(IBancorConverterRegistryData _converterRegistryData, address _smartToken) internal {\r\n        _converterRegistryData.addSmartToken(_smartToken);\r\n        emit SmartTokenAdded(_smartToken);\r\n    }\r\n\r\n    /**\r\n      * @dev removes a smart token from the registry\r\n      * \r\n      * @param _smartToken smart token\r\n    */\r\n    function removeSmartToken(IBancorConverterRegistryData _converterRegistryData, address _smartToken) internal {\r\n        _converterRegistryData.removeSmartToken(_smartToken);\r\n        emit SmartTokenRemoved(_smartToken);\r\n    }\r\n\r\n    /**\r\n      * @dev adds a liquidity pool to the registry\r\n      * \r\n      * @param _liquidityPool liquidity pool\r\n    */\r\n    function addLiquidityPool(IBancorConverterRegistryData _converterRegistryData, address _liquidityPool) internal {\r\n        _converterRegistryData.addLiquidityPool(_liquidityPool);\r\n        emit LiquidityPoolAdded(_liquidityPool);\r\n    }\r\n\r\n    /**\r\n      * @dev removes a liquidity pool from the registry\r\n      * \r\n      * @param _liquidityPool liquidity pool\r\n    */\r\n    function removeLiquidityPool(IBancorConverterRegistryData _converterRegistryData, address _liquidityPool) internal {\r\n        _converterRegistryData.removeLiquidityPool(_liquidityPool);\r\n        emit LiquidityPoolRemoved(_liquidityPool);\r\n    }\r\n\r\n    /**\r\n      * @dev adds a convertible token to the registry\r\n      * \r\n      * @param _convertibleToken convertible token\r\n      * @param _smartToken associated smart token\r\n    */\r\n    function addConvertibleToken(IBancorConverterRegistryData _converterRegistryData, address _convertibleToken, address _smartToken) internal {\r\n        _converterRegistryData.addConvertibleToken(_convertibleToken, _smartToken);\r\n        emit ConvertibleTokenAdded(_convertibleToken, _smartToken);\r\n    }\r\n\r\n    /**\r\n      * @dev removes a convertible token from the registry\r\n      * \r\n      * @param _convertibleToken convertible token\r\n      * @param _smartToken associated smart token\r\n    */\r\n    function removeConvertibleToken(IBancorConverterRegistryData _converterRegistryData, address _convertibleToken, address _smartToken) internal {\r\n        _converterRegistryData.removeConvertibleToken(_convertibleToken, _smartToken);\r\n        emit ConvertibleTokenRemoved(_convertibleToken, _smartToken);\r\n    }\r\n\r\n    function getLeastFrequentTokenSmartTokens(address[] memory _tokens) private view returns (address[] memory) {\r\n        IBancorConverterRegistryData bancorConverterRegistryData = IBancorConverterRegistryData(addressOf(BANCOR_CONVERTER_REGISTRY_DATA));\r\n\r\n        // find the token that has the smallest number of smart tokens\r\n        uint minSmartTokenCount = bancorConverterRegistryData.getConvertibleTokenSmartTokenCount(_tokens[0]);\r\n        address[] memory smartTokens = bancorConverterRegistryData.getConvertibleTokenSmartTokens(_tokens[0]);\r\n        for (uint i = 1; i < _tokens.length; i++) {\r\n            uint convertibleTokenSmartTokenCount = bancorConverterRegistryData.getConvertibleTokenSmartTokenCount(_tokens[i]);\r\n            if (minSmartTokenCount > convertibleTokenSmartTokenCount) {\r\n                minSmartTokenCount = convertibleTokenSmartTokenCount;\r\n                smartTokens = bancorConverterRegistryData.getConvertibleTokenSmartTokens(_tokens[i]);\r\n            }\r\n        }\r\n        return smartTokens;\r\n    }\r\n\r\n    function isConverterReserveConfigEqual(IBancorConverter _converter, address[] memory _reserveTokens, uint[] memory _reserveRatios) private view returns (bool) {\r\n        if (_reserveTokens.length != _converter.connectorTokenCount())\r\n            return false;\r\n\r\n        for (uint i = 0; i < _reserveTokens.length; i++) {\r\n            if (_reserveRatios[i] != getReserveRatio(_converter, _reserveTokens[i]))\r\n                return false;\r\n        }\r\n\r\n        return true;\r\n    }\r\n\r\n    bytes4 private constant CONNECTORS_FUNC_SELECTOR = bytes4(uint256(keccak256(\"connectors(address)\") >> (256 - 4 * 8)));\r\n\r\n    function getReserveRatio(address _converter, address _reserveToken) private view returns (uint256) {\r\n        uint256[2] memory ret;\r\n        bytes memory data = abi.encodeWithSelector(CONNECTORS_FUNC_SELECTOR, _reserveToken);\r\n\r\n        assembly {\r\n            let success := staticcall(\r\n                gas,           // gas remaining\r\n                _converter,    // destination address\r\n                add(data, 32), // input buffer (starts after the first 32 bytes in the `data` array)\r\n                mload(data),   // input length (loaded from the first 32 bytes in the `data` array)\r\n                ret,           // output buffer\r\n                64             // output length\r\n            )\r\n            if iszero(success) {\r\n                revert(0, 0)\r\n            }\r\n        }\r\n\r\n        return ret[1];\r\n    }\r\n}\r\n",
  "sourcePath": "/home/lash/src/home/grassroots/contracts/solidity/contracts/converter/BancorConverterRegistry.sol",
  "compiler": {
    "name": "solc",
    "version": "0.4.26+commit.4563c3fc.Emscripten.clang"
  },
  "schemaVersion": "2.0.3",
  "updatedAt": "2020-03-29T18:40:52.533Z"
}