{
  "contractName": "BancorConverterRegistryData",
  "abi": [
    {
      "constant": false,
      "inputs": [
        {
          "name": "_adminOnly",
          "type": "bool"
        }
      ],
      "name": "restrictRegistryUpdate",
      "outputs": [],
      "payable": false,
      "stateMutability": "nonpayable",
      "type": "function"
    },
    {
      "constant": false,
      "inputs": [],
      "name": "updateRegistry",
      "outputs": [],
      "payable": false,
      "stateMutability": "nonpayable",
      "type": "function"
    },
    {
      "constant": true,
      "inputs": [],
      "name": "prevRegistry",
      "outputs": [
        {
          "name": "",
          "type": "address"
        }
      ],
      "payable": false,
      "stateMutability": "view",
      "type": "function"
    },
    {
      "constant": false,
      "inputs": [],
      "name": "acceptOwnership",
      "outputs": [],
      "payable": false,
      "stateMutability": "nonpayable",
      "type": "function"
    },
    {
      "constant": true,
      "inputs": [],
      "name": "registry",
      "outputs": [
        {
          "name": "",
          "type": "address"
        }
      ],
      "payable": false,
      "stateMutability": "view",
      "type": "function"
    },
    {
      "constant": true,
      "inputs": [],
      "name": "owner",
      "outputs": [
        {
          "name": "",
          "type": "address"
        }
      ],
      "payable": false,
      "stateMutability": "view",
      "type": "function"
    },
    {
      "constant": false,
      "inputs": [],
      "name": "restoreRegistry",
      "outputs": [],
      "payable": false,
      "stateMutability": "nonpayable",
      "type": "function"
    },
    {
      "constant": true,
      "inputs": [],
      "name": "adminOnly",
      "outputs": [
        {
          "name": "",
          "type": "bool"
        }
      ],
      "payable": false,
      "stateMutability": "view",
      "type": "function"
    },
    {
      "constant": true,
      "inputs": [],
      "name": "newOwner",
      "outputs": [
        {
          "name": "",
          "type": "address"
        }
      ],
      "payable": false,
      "stateMutability": "view",
      "type": "function"
    },
    {
      "constant": false,
      "inputs": [
        {
          "name": "_newOwner",
          "type": "address"
        }
      ],
      "name": "transferOwnership",
      "outputs": [],
      "payable": false,
      "stateMutability": "nonpayable",
      "type": "function"
    },
    {
      "inputs": [
        {
          "name": "_registry",
          "type": "address"
        }
      ],
      "payable": false,
      "stateMutability": "nonpayable",
      "type": "constructor"
    },
    {
      "anonymous": false,
      "inputs": [
        {
          "indexed": true,
          "name": "_prevOwner",
          "type": "address"
        },
        {
          "indexed": true,
          "name": "_newOwner",
          "type": "address"
        }
      ],
      "name": "OwnerUpdate",
      "type": "event"
    },
    {
      "constant": false,
      "inputs": [
        {
          "name": "_smartToken",
          "type": "address"
        }
      ],
      "name": "addSmartToken",
      "outputs": [],
      "payable": false,
      "stateMutability": "nonpayable",
      "type": "function"
    },
    {
      "constant": false,
      "inputs": [
        {
          "name": "_smartToken",
          "type": "address"
        }
      ],
      "name": "removeSmartToken",
      "outputs": [],
      "payable": false,
      "stateMutability": "nonpayable",
      "type": "function"
    },
    {
      "constant": false,
      "inputs": [
        {
          "name": "_liquidityPool",
          "type": "address"
        }
      ],
      "name": "addLiquidityPool",
      "outputs": [],
      "payable": false,
      "stateMutability": "nonpayable",
      "type": "function"
    },
    {
      "constant": false,
      "inputs": [
        {
          "name": "_liquidityPool",
          "type": "address"
        }
      ],
      "name": "removeLiquidityPool",
      "outputs": [],
      "payable": false,
      "stateMutability": "nonpayable",
      "type": "function"
    },
    {
      "constant": false,
      "inputs": [
        {
          "name": "_convertibleToken",
          "type": "address"
        },
        {
          "name": "_smartToken",
          "type": "address"
        }
      ],
      "name": "addConvertibleToken",
      "outputs": [],
      "payable": false,
      "stateMutability": "nonpayable",
      "type": "function"
    },
    {
      "constant": false,
      "inputs": [
        {
          "name": "_convertibleToken",
          "type": "address"
        },
        {
          "name": "_smartToken",
          "type": "address"
        }
      ],
      "name": "removeConvertibleToken",
      "outputs": [],
      "payable": false,
      "stateMutability": "nonpayable",
      "type": "function"
    },
    {
      "constant": true,
      "inputs": [],
      "name": "getSmartTokenCount",
      "outputs": [
        {
          "name": "",
          "type": "uint256"
        }
      ],
      "payable": false,
      "stateMutability": "view",
      "type": "function"
    },
    {
      "constant": true,
      "inputs": [],
      "name": "getSmartTokens",
      "outputs": [
        {
          "name": "",
          "type": "address[]"
        }
      ],
      "payable": false,
      "stateMutability": "view",
      "type": "function"
    },
    {
      "constant": true,
      "inputs": [
        {
          "name": "_index",
          "type": "uint256"
        }
      ],
      "name": "getSmartToken",
      "outputs": [
        {
          "name": "",
          "type": "address"
        }
      ],
      "payable": false,
      "stateMutability": "view",
      "type": "function"
    },
    {
      "constant": true,
      "inputs": [
        {
          "name": "_value",
          "type": "address"
        }
      ],
      "name": "isSmartToken",
      "outputs": [
        {
          "name": "",
          "type": "bool"
        }
      ],
      "payable": false,
      "stateMutability": "view",
      "type": "function"
    },
    {
      "constant": true,
      "inputs": [],
      "name": "getLiquidityPoolCount",
      "outputs": [
        {
          "name": "",
          "type": "uint256"
        }
      ],
      "payable": false,
      "stateMutability": "view",
      "type": "function"
    },
    {
      "constant": true,
      "inputs": [],
      "name": "getLiquidityPools",
      "outputs": [
        {
          "name": "",
          "type": "address[]"
        }
      ],
      "payable": false,
      "stateMutability": "view",
      "type": "function"
    },
    {
      "constant": true,
      "inputs": [
        {
          "name": "_index",
          "type": "uint256"
        }
      ],
      "name": "getLiquidityPool",
      "outputs": [
        {
          "name": "",
          "type": "address"
        }
      ],
      "payable": false,
      "stateMutability": "view",
      "type": "function"
    },
    {
      "constant": true,
      "inputs": [
        {
          "name": "_value",
          "type": "address"
        }
      ],
      "name": "isLiquidityPool",
      "outputs": [
        {
          "name": "",
          "type": "bool"
        }
      ],
      "payable": false,
      "stateMutability": "view",
      "type": "function"
    },
    {
      "constant": true,
      "inputs": [],
      "name": "getConvertibleTokenCount",
      "outputs": [
        {
          "name": "",
          "type": "uint256"
        }
      ],
      "payable": false,
      "stateMutability": "view",
      "type": "function"
    },
    {
      "constant": true,
      "inputs": [],
      "name": "getConvertibleTokens",
      "outputs": [
        {
          "name": "",
          "type": "address[]"
        }
      ],
      "payable": false,
      "stateMutability": "view",
      "type": "function"
    },
    {
      "constant": true,
      "inputs": [
        {
          "name": "_index",
          "type": "uint256"
        }
      ],
      "name": "getConvertibleToken",
      "outputs": [
        {
          "name": "",
          "type": "address"
        }
      ],
      "payable": false,
      "stateMutability": "view",
      "type": "function"
    },
    {
      "constant": true,
      "inputs": [
        {
          "name": "_value",
          "type": "address"
        }
      ],
      "name": "isConvertibleToken",
      "outputs": [
        {
          "name": "",
          "type": "bool"
        }
      ],
      "payable": false,
      "stateMutability": "view",
      "type": "function"
    },
    {
      "constant": true,
      "inputs": [
        {
          "name": "_convertibleToken",
          "type": "address"
        }
      ],
      "name": "getConvertibleTokenSmartTokenCount",
      "outputs": [
        {
          "name": "",
          "type": "uint256"
        }
      ],
      "payable": false,
      "stateMutability": "view",
      "type": "function"
    },
    {
      "constant": true,
      "inputs": [
        {
          "name": "_convertibleToken",
          "type": "address"
        }
      ],
      "name": "getConvertibleTokenSmartTokens",
      "outputs": [
        {
          "name": "",
          "type": "address[]"
        }
      ],
      "payable": false,
      "stateMutability": "view",
      "type": "function"
    },
    {
      "constant": true,
      "inputs": [
        {
          "name": "_convertibleToken",
          "type": "address"
        },
        {
          "name": "_index",
          "type": "uint256"
        }
      ],
      "name": "getConvertibleTokenSmartToken",
      "outputs": [
        {
          "name": "",
          "type": "address"
        }
      ],
      "payable": false,
      "stateMutability": "view",
      "type": "function"
    },
    {
      "constant": true,
      "inputs": [
        {
          "name": "_convertibleToken",
          "type": "address"
        },
        {
          "name": "_value",
          "type": "address"
        }
      ],
      "name": "isConvertibleTokenSmartToken",
      "outputs": [
        {
          "name": "",
          "type": "bool"
        }
      ],
      "payable": false,
      "stateMutability": "view",
      "type": "function"
    }
  ],
  "bytecode": "0x608060405234801561001057600080fd5b506040516020806111f8833981016040525160008054600160a060020a031916331790558080600160a060020a038116151561004b57600080fd5b5060028054600160a060020a03909216600160a060020a031992831681179091556003805490921617905550611172806100866000396000f3006080604052600436106101955763ffffffff7c0100000000000000000000000000000000000000000000000000000000600035041663024c7ec7811461019a57806304ceaf41146101b657806336900c111461021b5780633ab8857c146102425780634123ef601461027757806349d10b64146102985780635f1b50fe146102ad57806361cd756e146102c257806369be4784146102f3578063725b87861461031a57806379ba5097146103415780637a5f0ffd146103565780637b1039991461036b5780637f45c4c314610380578063865cf194146103955780638da5cb5b146103ad5780638de6c3eb146103c2578063a109d214146103e3578063a43d5e94146103fb578063a74498aa1461041c578063ae22107f14610434578063b4a176d314610455578063c976a3591461046a578063ceb9838c1461047f578063d4ee1d90146104a0578063d6c4b5b2146104b5578063e571049b146104d9578063e85455d7146104ee578063ee6a934c1461050f578063f2fde38b14610530578063f4fb86c014610551578063fba8f03114610572575b600080fd5b3480156101a657600080fd5b506101b46004351515610599565b005b3480156101c257600080fd5b506101cb610619565b60408051602080825283518183015283519192839290830191858101910280838360005b838110156102075781810151838201526020016101ef565b505050509050019250505060405180910390f35b34801561022757600080fd5b506101b4600160a060020a036004358116906024351661067f565b34801561024e57600080fd5b50610263600160a060020a0360043516610735565b604080519115158252519081900360200190f35b34801561028357600080fd5b50610263600160a060020a0360043516610754565b3480156102a457600080fd5b506101b4610772565b3480156102b957600080fd5b506101cb6108fe565b3480156102ce57600080fd5b506102d7610961565b60408051600160a060020a039092168252519081900360200190f35b3480156102ff57600080fd5b50610308610970565b60408051918252519081900360200190f35b34801561032657600080fd5b50610263600160a060020a0360043581169060243516610976565b34801561034d57600080fd5b506101b46109a8565b34801561036257600080fd5b50610308610a23565b34801561037757600080fd5b506102d7610a29565b34801561038c57600080fd5b506101cb610a38565b3480156103a157600080fd5b506102d7600435610a9b565b3480156103b957600080fd5b506102d7610ac8565b3480156103ce57600080fd5b506101b4600160a060020a0360043516610ad7565b3480156103ef57600080fd5b506102d7600435610b12565b34801561040757600080fd5b50610308600160a060020a0360043516610b24565b34801561042857600080fd5b506102d7600435610b42565b34801561044057600080fd5b506101b4600160a060020a0360043516610b54565b34801561046157600080fd5b506101b4610b8b565b34801561047657600080fd5b50610263610bc2565b34801561048b57600080fd5b506101b4600160a060020a0360043516610be3565b3480156104ac57600080fd5b506102d7610c1a565b3480156104c157600080fd5b506102d7600160a060020a0360043516602435610c29565b3480156104e557600080fd5b50610308610c6c565b3480156104fa57600080fd5b50610263600160a060020a0360043516610c72565b34801561051b57600080fd5b506101b4600160a060020a0360043516610c90565b34801561053c57600080fd5b506101b4600160a060020a0360043516610cc7565b34801561055d57600080fd5b506101cb600160a060020a0360043516610d1b565b34801561057e57600080fd5b506101b4600160a060020a0360043581169060243516610d94565b60035460ff74010000000000000000000000000000000000000000909104161515811515148015906105ce57506105ce610eb9565b15156105d957600080fd5b60038054911515740100000000000000000000000000000000000000000274ff000000000000000000000000000000000000000019909216919091179055565b6060600460000180548060200260200160405190810160405280929190818152602001828054801561067457602002820191906000526020600020905b8154600160a060020a03168152600190910190602001808311610656575b505050505090505b90565b600060008051602061112783398151915261069981610eca565b600160a060020a031633146106ad57600080fd5b600160a060020a03841660009081526009602052604090206001810154909250151561072257600880546001810182556000919091527ff3f7a9fe364faab93b216da50a3214154f22a0a2b415b23a84c8169e8b636ee381018054600160a060020a031916600160a060020a03871617905582555b61072f8260010184610f62565b50505050565b600160a060020a03166000908152600960205260408120600101541190565b600160a060020a031660009081526005602052604090205460ff1690565b60035460009074010000000000000000000000000000000000000000900460ff1615806107a257506107a2610eb9565b15156107ad57600080fd5b6107d67f436f6e7472616374526567697374727900000000000000000000000000000000610eca565b600254909150600160a060020a038083169116148015906107ff5750600160a060020a03811615155b151561080a57600080fd5b604080517fbb34534c0000000000000000000000000000000000000000000000000000000081527f436f6e747261637452656769737472790000000000000000000000000000000060048201529051600091600160a060020a0384169163bb34534c9160248082019260209290919082900301818787803b15801561088e57600080fd5b505af11580156108a2573d6000803e3d6000fd5b505050506040513d60208110156108b857600080fd5b5051600160a060020a031614156108ce57600080fd5b6002805460038054600160a060020a03808416600160a060020a0319928316179092559091169216919091179055565b6060600860000180548060200260200160405190810160405280929190818152602001828054801561067457602002820191906000526020600020908154600160a060020a03168152600190910190602001808311610656575050505050905090565b600354600160a060020a031681565b60085490565b600160a060020a0391821660009081526009602090815260408083209390941682526002909201909152205460ff1690565b600154600160a060020a031633146109bf57600080fd5b60015460008054604051600160a060020a0393841693909116917f343765429aea5a34b3ff6a3785a98a5abb2597aca87bfbb58632c173d585373a91a36001805460008054600160a060020a0319908116600160a060020a03841617909155169055565b60065490565b600254600160a060020a031681565b6060600660000180548060200260200160405190810160405280929190818152602001828054801561067457602002820191906000526020600020908154600160a060020a03168152600190910190602001808311610656575050505050905090565b600880546000919083908110610aad57fe5b600091825260209091200154600160a060020a031692915050565b600054600160a060020a031681565b600080516020611127833981519152610aef81610eca565b600160a060020a03163314610b0357600080fd5b610b0e600483610f62565b5050565b600480546000919083908110610aad57fe5b600160a060020a031660009081526009602052604090206001015490565b600680546000919083908110610aad57fe5b600080516020611127833981519152610b6c81610eca565b600160a060020a03163314610b8057600080fd5b610b0e600683610fd3565b610b93610eb9565b1515610b9e57600080fd5b60035460028054600160a060020a031916600160a060020a03909216919091179055565b60035474010000000000000000000000000000000000000000900460ff1681565b600080516020611127833981519152610bfb81610eca565b600160a060020a03163314610c0f57600080fd5b610b0e600483610fd3565b600154600160a060020a031681565b600160a060020a0382166000908152600960205260408120600101805483908110610c5057fe5b600091825260209091200154600160a060020a03169392505050565b60045490565b600160a060020a031660009081526007602052604090205460ff1690565b600080516020611127833981519152610ca881610eca565b600160a060020a03163314610cbc57600080fd5b610b0e600683610f62565b600054600160a060020a03163314610cde57600080fd5b600054600160a060020a0382811691161415610cf957600080fd5b60018054600160a060020a031916600160a060020a0392909216919091179055565b600160a060020a038116600090815260096020908152604091829020600101805483518184028101840190945280845260609392830182828015610d8857602002820191906000526020600020905b8154600160a060020a03168152600190910190602001808311610d6a575b50505050509050919050565b600080600080516020611127833981519152610daf81610eca565b600160a060020a03163314610dc357600080fd5b600160a060020a03851660009081526009602052604090209250610dea6001840185610fd3565b60018301541515610eb257600880546000198101908110610e0757fe5b60009182526020808320909101548554600160a060020a039091168084526009909252604090922082905560088054919450849290918110610e4557fe5b60009182526020909120018054600160a060020a031916600160a060020a03929092169190911790556008805490610e819060001983016110be565b50600160a060020a0385166000908152600960205260408120818155906001820181610ead82826110e7565b505050505b5050505050565b600054600160a060020a0316331490565b600254604080517fbb34534c000000000000000000000000000000000000000000000000000000008152600481018490529051600092600160a060020a03169163bb34534c91602480830192602092919082900301818787803b158015610f3057600080fd5b505af1158015610f44573d6000803e3d6000fd5b505050506040513d6020811015610f5a57600080fd5b505192915050565b600160a060020a03811660009081526001830160205260409020805460ff1615610f8b57600080fd5b8254600180820185556000948552602090942081018054600160a060020a031916600160a060020a03949094169390931790925580830191909155805460ff19169091179055565b600160a060020a0381166000908152600180840160205260408220805490929160ff90911615151461100457600080fd5b83548490600019810190811061101657fe5b6000918252602080832090910154600185810154600160a060020a039092168085528882019093526040909320909201829055855490925082918691811061105a57fe5b60009182526020909120018054600160a060020a031916600160a060020a039290921691909117905583546110938560001983016110be565b505050600160a060020a03166000908152600191820160205260408120805460ff1916815590910155565b8154818355818111156110e2576000838152602090206110e2918101908301611108565b505050565b50805460008255906000526020600020908101906111059190611108565b50565b61067c91905b80821115611122576000815560010161110e565b5090560042616e636f72436f6e7665727465725265676973747279000000000000000000a165627a7a723058204bfeb32ce83f99e0ec54d946c1bbba98895c23cc33acc61b3ff22151cfdebbd60029",
  "source": "pragma solidity 0.4.26;\r\nimport '../utility/ContractRegistryClient.sol';\r\nimport './interfaces/IBancorConverterRegistryData.sol';\r\n\r\n/**\r\n  * @dev The BancorConverterRegistryData contract is an integral part of the Bancor converter registry\r\n  * as it serves as the database contract that holds all registry data.\r\n  *\r\n  * The registry is separated into two different contracts for upgradability - the data contract\r\n  * is harder to upgrade as it requires migrating all registry data into a new contract, while\r\n  * the registry contract itself can be easily upgraded.\r\n  *\r\n  * For that same reason, the data contract is simple and contains no logic beyond the basic data\r\n  * access utilities that it exposes.\r\n*/\r\ncontract BancorConverterRegistryData is IBancorConverterRegistryData, ContractRegistryClient {\r\n    struct Item {\r\n        bool valid;\r\n        uint index;\r\n    }\r\n\r\n    struct Items {\r\n        address[] array;\r\n        mapping(address => Item) table;\r\n    }\r\n\r\n    struct List {\r\n        uint index;\r\n        Items items;\r\n    }\r\n\r\n    struct Lists {\r\n        address[] array;\r\n        mapping(address => List) table;\r\n    }\r\n\r\n    Items smartTokens;\r\n    Items liquidityPools;\r\n    Lists convertibleTokens;\r\n\r\n    /**\r\n      * @dev initializes a new BancorConverterRegistryData instance\r\n      * \r\n      * @param _registry address of a contract registry contract\r\n    */\r\n    constructor(IContractRegistry _registry) ContractRegistryClient(_registry) public {\r\n    }\r\n\r\n    /**\r\n      * @dev adds a smart token\r\n      * \r\n      * @param _smartToken smart token\r\n    */\r\n    function addSmartToken(address _smartToken) external only(BANCOR_CONVERTER_REGISTRY) {\r\n        addItem(smartTokens, _smartToken);\r\n    }\r\n\r\n    /**\r\n      * @dev removes a smart token\r\n      * \r\n      * @param _smartToken smart token\r\n    */\r\n    function removeSmartToken(address _smartToken) external only(BANCOR_CONVERTER_REGISTRY) {\r\n        removeItem(smartTokens, _smartToken);\r\n    }\r\n\r\n    /**\r\n      * @dev adds a liquidity pool\r\n      * \r\n      * @param _liquidityPool liquidity pool\r\n    */\r\n    function addLiquidityPool(address _liquidityPool) external only(BANCOR_CONVERTER_REGISTRY) {\r\n        addItem(liquidityPools, _liquidityPool);\r\n    }\r\n\r\n    /**\r\n      * @dev removes a liquidity pool\r\n      * \r\n      * @param _liquidityPool liquidity pool\r\n    */\r\n    function removeLiquidityPool(address _liquidityPool) external only(BANCOR_CONVERTER_REGISTRY) {\r\n        removeItem(liquidityPools, _liquidityPool);\r\n    }\r\n\r\n    /**\r\n      * @dev adds a convertible token\r\n      * \r\n      * @param _convertibleToken convertible token\r\n      * @param _smartToken associated smart token\r\n    */\r\n    function addConvertibleToken(address _convertibleToken, address _smartToken) external only(BANCOR_CONVERTER_REGISTRY) {\r\n        List storage list = convertibleTokens.table[_convertibleToken];\r\n        if (list.items.array.length == 0) {\r\n            list.index = convertibleTokens.array.push(_convertibleToken) - 1;\r\n        }\r\n        addItem(list.items, _smartToken);\r\n    }\r\n\r\n    /**\r\n      * @dev removes a convertible token\r\n      * \r\n      * @param _convertibleToken convertible token\r\n      * @param _smartToken associated smart token\r\n    */\r\n    function removeConvertibleToken(address _convertibleToken, address _smartToken) external only(BANCOR_CONVERTER_REGISTRY) {\r\n        List storage list = convertibleTokens.table[_convertibleToken];\r\n        removeItem(list.items, _smartToken);\r\n        if (list.items.array.length == 0) {\r\n            address lastConvertibleToken = convertibleTokens.array[convertibleTokens.array.length - 1];\r\n            convertibleTokens.table[lastConvertibleToken].index = list.index;\r\n            convertibleTokens.array[list.index] = lastConvertibleToken;\r\n            convertibleTokens.array.length--;\r\n            delete convertibleTokens.table[_convertibleToken];\r\n        }\r\n    }\r\n\r\n    /**\r\n      * @dev returns the number of smart tokens\r\n      * \r\n      * @return number of smart tokens\r\n    */\r\n    function getSmartTokenCount() external view returns (uint) {\r\n        return smartTokens.array.length;\r\n    }\r\n\r\n    /**\r\n      * @dev returns the list of smart tokens\r\n      * \r\n      * @return list of smart tokens\r\n    */\r\n    function getSmartTokens() external view returns (address[]) {\r\n        return smartTokens.array;\r\n    }\r\n\r\n    /**\r\n      * @dev returns the smart token at a given index\r\n      * \r\n      * @param _index index\r\n      * @return smart token at the given index\r\n    */\r\n    function getSmartToken(uint _index) external view returns (address) {\r\n        return smartTokens.array[_index];\r\n    }\r\n\r\n    /**\r\n      * @dev checks whether or not a given value is a smart token\r\n      * \r\n      * @param _value value\r\n      * @return true if the given value is a smart token, false if not\r\n    */\r\n    function isSmartToken(address _value) external view returns (bool) {\r\n        return smartTokens.table[_value].valid;\r\n    }\r\n\r\n    /**\r\n      * @dev returns the number of liquidity pools\r\n      * \r\n      * @return number of liquidity pools\r\n    */\r\n    function getLiquidityPoolCount() external view returns (uint) {\r\n        return liquidityPools.array.length;\r\n    }\r\n\r\n    /**\r\n      * @dev returns the list of liquidity pools\r\n      * \r\n      * @return list of liquidity pools\r\n    */\r\n    function getLiquidityPools() external view returns (address[]) {\r\n        return liquidityPools.array;\r\n    }\r\n\r\n    /**\r\n      * @dev returns the liquidity pool at a given index\r\n      * \r\n      * @param _index index\r\n      * @return liquidity pool at the given index\r\n    */\r\n    function getLiquidityPool(uint _index) external view returns (address) {\r\n        return liquidityPools.array[_index];\r\n    }\r\n\r\n    /**\r\n      * @dev checks whether or not a given value is a liquidity pool\r\n      * \r\n      * @param _value value\r\n      * @return true if the given value is a liquidity pool, false if not\r\n    */\r\n    function isLiquidityPool(address _value) external view returns (bool) {\r\n        return liquidityPools.table[_value].valid;\r\n    }\r\n\r\n    /**\r\n      * @dev returns the number of convertible tokens\r\n      * \r\n      * @return number of convertible tokens\r\n    */\r\n    function getConvertibleTokenCount() external view returns (uint) {\r\n        return convertibleTokens.array.length;\r\n    }\r\n\r\n    /**\r\n      * @dev returns the list of convertible tokens\r\n      * \r\n      * @return list of convertible tokens\r\n    */\r\n    function getConvertibleTokens() external view returns (address[]) {\r\n        return convertibleTokens.array;\r\n    }\r\n\r\n    /**\r\n      * @dev returns the convertible token at a given index\r\n      * \r\n      * @param _index index\r\n      * @return convertible token at the given index\r\n    */\r\n    function getConvertibleToken(uint _index) external view returns (address) {\r\n        return convertibleTokens.array[_index];\r\n    }\r\n\r\n    /**\r\n      * @dev checks whether or not a given value is a convertible token\r\n      * \r\n      * @param _value value\r\n      * @return true if the given value is a convertible token, false if not\r\n    */\r\n    function isConvertibleToken(address _value) external view returns (bool) {\r\n        return convertibleTokens.table[_value].items.array.length > 0;\r\n    }\r\n\r\n    /**\r\n      * @dev returns the number of smart tokens associated with a given convertible token\r\n      * \r\n      * @param _convertibleToken convertible token\r\n      * @return number of smart tokens associated with the given convertible token\r\n    */\r\n    function getConvertibleTokenSmartTokenCount(address _convertibleToken) external view returns (uint) {\r\n        return convertibleTokens.table[_convertibleToken].items.array.length;\r\n    }\r\n\r\n    /**\r\n      * @dev returns the list of smart tokens associated with a given convertible token\r\n      * \r\n      * @param _convertibleToken convertible token\r\n      * @return list of smart tokens associated with the given convertible token\r\n    */\r\n    function getConvertibleTokenSmartTokens(address _convertibleToken) external view returns (address[]) {\r\n        return convertibleTokens.table[_convertibleToken].items.array;\r\n    }\r\n\r\n    /**\r\n      * @dev returns the smart token associated with a given convertible token at a given index\r\n      * \r\n      * @param _index index\r\n      * @return smart token associated with the given convertible token at the given index\r\n    */\r\n    function getConvertibleTokenSmartToken(address _convertibleToken, uint _index) external view returns (address) {\r\n        return convertibleTokens.table[_convertibleToken].items.array[_index];\r\n    }\r\n\r\n    /**\r\n      * @dev checks whether or not a given value is a smart token of a given convertible token\r\n      * \r\n      * @param _convertibleToken convertible token\r\n      * @param _value value\r\n      * @return true if the given value is a smart token of the given convertible token, false it not\r\n    */\r\n    function isConvertibleTokenSmartToken(address _convertibleToken, address _value) external view returns (bool) {\r\n        return convertibleTokens.table[_convertibleToken].items.table[_value].valid;\r\n    }\r\n\r\n    /**\r\n      * @dev adds an item to a list of items\r\n      * \r\n      * @param _items list of items\r\n      * @param _value item's value\r\n    */\r\n    function addItem(Items storage _items, address _value) internal {\r\n        Item storage item = _items.table[_value];\r\n        require(item.valid == false);\r\n\r\n        item.index = _items.array.push(_value) - 1;\r\n        item.valid = true;\r\n    }\r\n\r\n    /**\r\n      * @dev removes an item from a list of items\r\n      * \r\n      * @param _items list of items\r\n      * @param _value item's value\r\n    */\r\n    function removeItem(Items storage _items, address _value) internal {\r\n        Item storage item = _items.table[_value];\r\n        require(item.valid == true);\r\n\r\n        address lastValue = _items.array[_items.array.length - 1];\r\n        _items.table[lastValue].index = item.index;\r\n        _items.array[item.index] = lastValue;\r\n        _items.array.length--;\r\n        delete _items.table[_value];\r\n    }\r\n}\r\n",
  "sourcePath": "/home/lash/src/home/grassroots/contracts/solidity/contracts/converter/BancorConverterRegistryData.sol",
  "compiler": {
    "name": "solc",
    "version": "0.4.26+commit.4563c3fc.Emscripten.clang"
  },
  "schemaVersion": "2.0.3",
  "updatedAt": "2020-03-23T08:48:13.071Z"
}