{
  "contractName": "ContractRegistry",
  "abi": [
    {
      "constant": true,
      "inputs": [
        {
          "name": "",
          "type": "uint256"
        }
      ],
      "name": "contractNames",
      "outputs": [
        {
          "name": "",
          "type": "string"
        }
      ],
      "payable": false,
      "stateMutability": "view",
      "type": "function"
    },
    {
      "constant": false,
      "inputs": [],
      "name": "acceptOwnership",
      "outputs": [],
      "payable": false,
      "stateMutability": "nonpayable",
      "type": "function"
    },
    {
      "constant": true,
      "inputs": [],
      "name": "owner",
      "outputs": [
        {
          "name": "",
          "type": "address"
        }
      ],
      "payable": false,
      "stateMutability": "view",
      "type": "function"
    },
    {
      "constant": true,
      "inputs": [],
      "name": "newOwner",
      "outputs": [
        {
          "name": "",
          "type": "address"
        }
      ],
      "payable": false,
      "stateMutability": "view",
      "type": "function"
    },
    {
      "constant": false,
      "inputs": [
        {
          "name": "_newOwner",
          "type": "address"
        }
      ],
      "name": "transferOwnership",
      "outputs": [],
      "payable": false,
      "stateMutability": "nonpayable",
      "type": "function"
    },
    {
      "anonymous": false,
      "inputs": [
        {
          "indexed": true,
          "name": "_contractName",
          "type": "bytes32"
        },
        {
          "indexed": false,
          "name": "_contractAddress",
          "type": "address"
        }
      ],
      "name": "AddressUpdate",
      "type": "event"
    },
    {
      "anonymous": false,
      "inputs": [
        {
          "indexed": true,
          "name": "_prevOwner",
          "type": "address"
        },
        {
          "indexed": true,
          "name": "_newOwner",
          "type": "address"
        }
      ],
      "name": "OwnerUpdate",
      "type": "event"
    },
    {
      "constant": true,
      "inputs": [],
      "name": "itemCount",
      "outputs": [
        {
          "name": "",
          "type": "uint256"
        }
      ],
      "payable": false,
      "stateMutability": "view",
      "type": "function"
    },
    {
      "constant": true,
      "inputs": [
        {
          "name": "_contractName",
          "type": "bytes32"
        }
      ],
      "name": "addressOf",
      "outputs": [
        {
          "name": "",
          "type": "address"
        }
      ],
      "payable": false,
      "stateMutability": "view",
      "type": "function"
    },
    {
      "constant": false,
      "inputs": [
        {
          "name": "_contractName",
          "type": "bytes32"
        },
        {
          "name": "_contractAddress",
          "type": "address"
        }
      ],
      "name": "registerAddress",
      "outputs": [],
      "payable": false,
      "stateMutability": "nonpayable",
      "type": "function"
    },
    {
      "constant": false,
      "inputs": [
        {
          "name": "_contractName",
          "type": "bytes32"
        }
      ],
      "name": "unregisterAddress",
      "outputs": [],
      "payable": false,
      "stateMutability": "nonpayable",
      "type": "function"
    },
    {
      "constant": true,
      "inputs": [
        {
          "name": "_contractName",
          "type": "bytes32"
        }
      ],
      "name": "getAddress",
      "outputs": [
        {
          "name": "",
          "type": "address"
        }
      ],
      "payable": false,
      "stateMutability": "view",
      "type": "function"
    }
  ],
  "bytecode": "0x608060405260008054600160a060020a0319163317905561092c806100256000396000f3006080604052600436106100a35763ffffffff7c010000000000000000000000000000000000000000000000000000000060003504166321f8a72181146100a85780632bbd9530146100dc5780633ca6bb92146100f6578063662de379146101835780636bfb0d01146101a757806379ba5097146101ce5780638da5cb5b146101e3578063bb34534c146101f8578063d4ee1d9014610210578063f2fde38b14610225575b600080fd5b3480156100b457600080fd5b506100c0600435610246565b60408051600160a060020a039092168252519081900360200190f35b3480156100e857600080fd5b506100f4600435610257565b005b34801561010257600080fd5b5061010e600435610442565b6040805160208082528351818301528351919283929083019185019080838360005b83811015610148578181015183820152602001610130565b50505050905090810190601f1680156101755780820380516001836020036101000a031916815260200191505b509250505060405180910390f35b34801561018f57600080fd5b506100f4600435600160a060020a03602435166104e9565b3480156101b357600080fd5b506101bc6105f8565b60408051918252519081900360200190f35b3480156101da57600080fd5b506100f46105ff565b3480156101ef57600080fd5b506100c0610687565b34801561020457600080fd5b506100c0600435610696565b34801561021c57600080fd5b506100c06106b1565b34801561023157600080fd5b506100f4600160a060020a03600435166106c0565b600061025182610696565b92915050565b600080546060919081908190600160a060020a0316331461027757600080fd5b600085815260026020526040902054600160a060020a0316151561029a57600080fd5b6000858152600260205260409020805473ffffffffffffffffffffffffffffffffffffffff19169055600354600110156103df576003805460001981019081106102e057fe5b600091825260209182902001805460408051601f600260001961010060018716150201909416939093049283018590048502810185019091528181529283018282801561036e5780601f106103435761010080835404028352916020019161036e565b820191906000526020600020905b81548152906001019060200180831161035157829003601f168201915b505050600088815260026020526040902060010154600380549498509096508793909250869150811061039d57fe5b9060005260206000200190805190602001906103ba9291906107d5565b506103c484610721565b60008181526002602052604090206001810185905590925090505b60038054906103f2906000198301610853565b50600085815260026020908152604080832060010183905580519283525187927ffc08d1253c81bcd5444fc7056ef1f5a5df4c9220b6fd70d7449267f1f0f2991892908290030190a25050505050565b600380548290811061045057fe5b600091825260209182902001805460408051601f60026000196101006001871615020190941693909304928301859004850281018501909152818152935090918301828280156104e15780601f106104b6576101008083540402835291602001916104e1565b820191906000526020600020905b8154815290600101906020018083116104c457829003601f168201915b505050505081565b60008054600160a060020a0316331461050157600080fd5b81600160a060020a038116151561051757600080fd5b600084815260026020526040902054600160a060020a0316151561058557600361054085610728565b81546001810180845560009384526020938490208351919461056894919093019201906107d5565b506000858152600260205260409020600019820160019091015591505b600084815260026020908152604091829020805473ffffffffffffffffffffffffffffffffffffffff1916600160a060020a0387169081179091558251908152915186927ffc08d1253c81bcd5444fc7056ef1f5a5df4c9220b6fd70d7449267f1f0f2991892908290030190a250505050565b6003545b90565b600154600160a060020a0316331461061657600080fd5b60015460008054604051600160a060020a0393841693909116917f343765429aea5a34b3ff6a3785a98a5abb2597aca87bfbb58632c173d585373a91a3600180546000805473ffffffffffffffffffffffffffffffffffffffff19908116600160a060020a03841617909155169055565b600054600160a060020a031681565b600090815260026020526040902054600160a060020a031690565b600154600160a060020a031681565b600054600160a060020a031633146106d757600080fd5b600054600160a060020a03828116911614156106f257600080fd5b6001805473ffffffffffffffffffffffffffffffffffffffff1916600160a060020a0392909216919091179055565b6020015190565b6040805160208082528183019092526060918291600091808201610400803883390190505091505b60208110156107ce5783816020811061076557fe5b1a7f010000000000000000000000000000000000000000000000000000000000000002828281518110151561079657fe5b9060200101907effffffffffffffffffffffffffffffffffffffffffffffffffffffffffffff1916908160001a905350600101610750565b5092915050565b828054600181600116156101000203166002900490600052602060002090601f016020900481019282601f1061081657805160ff1916838001178555610843565b82800160010185558215610843579182015b82811115610843578251825591602001919060010190610828565b5061084f92915061087c565b5090565b81548183558181111561087757600083815260209020610877918101908301610896565b505050565b6105fc91905b8082111561084f5760008155600101610882565b6105fc91905b8082111561084f5760006108b082826108b9565b5060010161089c565b50805460018160011615610100020316600290046000825580601f106108df57506108fd565b601f0160209004906000526020600020908101906108fd919061087c565b505600a165627a7a7230582057af2c73f5443ab295dbfddb8315d29b1efbce5345c45066cdcd5b0979818eec0029",
  "source": "pragma solidity 0.4.26;\r\nimport './Owned.sol';\r\nimport './Utils.sol';\r\nimport './interfaces/IContractRegistry.sol';\r\n\r\n/**\r\n  * @dev Contract Registry\r\n  * \r\n  * The contract registry keeps contract addresses by name.\r\n  * The owner can update contract addresses so that a contract name always points to the latest version\r\n  * of the given contract.\r\n  * Other contracts can query the registry to get updated addresses instead of depending on specific\r\n  * addresses.\r\n  * \r\n  * Note that contract names are limited to 32 bytes UTF8 encoded ASCII strings to optimize gas costs\r\n*/\r\ncontract ContractRegistry is IContractRegistry, Owned, Utils {\r\n    struct RegistryItem {\r\n        address contractAddress;    // contract address\r\n        uint256 nameIndex;          // index of the item in the list of contract names\r\n    }\r\n\r\n    mapping (bytes32 => RegistryItem) private items;    // name -> RegistryItem mapping\r\n    string[] public contractNames;                      // list of all registered contract names\r\n\r\n    /**\r\n      * @dev triggered when an address pointed to by a contract name is modified\r\n      * \r\n      * @param _contractName    contract name\r\n      * @param _contractAddress new contract address\r\n    */\r\n    event AddressUpdate(bytes32 indexed _contractName, address _contractAddress);\r\n\r\n    /**\r\n      * @dev returns the number of items in the registry\r\n      * \r\n      * @return number of items\r\n    */\r\n    function itemCount() public view returns (uint256) {\r\n        return contractNames.length;\r\n    }\r\n\r\n    /**\r\n      * @dev returns the address associated with the given contract name\r\n      * \r\n      * @param _contractName    contract name\r\n      * \r\n      * @return contract address\r\n    */\r\n    function addressOf(bytes32 _contractName) public view returns (address) {\r\n        return items[_contractName].contractAddress;\r\n    }\r\n\r\n    /**\r\n      * @dev registers a new address for the contract name in the registry\r\n      * \r\n      * @param _contractName     contract name\r\n      * @param _contractAddress  contract address\r\n    */\r\n    function registerAddress(bytes32 _contractName, address _contractAddress)\r\n        public\r\n        ownerOnly\r\n        validAddress(_contractAddress)\r\n    {\r\n        require(_contractName.length > 0); // validate input\r\n\r\n        if (items[_contractName].contractAddress == address(0)) {\r\n            // add the contract name to the name list\r\n            uint256 i = contractNames.push(bytes32ToString(_contractName));\r\n            // update the item's index in the list\r\n            items[_contractName].nameIndex = i - 1;\r\n        }\r\n\r\n        // update the address in the registry\r\n        items[_contractName].contractAddress = _contractAddress;\r\n\r\n        // dispatch the address update event\r\n        emit AddressUpdate(_contractName, _contractAddress);\r\n    }\r\n\r\n    /**\r\n      * @dev removes an existing contract address from the registry\r\n      * \r\n      * @param _contractName contract name\r\n    */\r\n    function unregisterAddress(bytes32 _contractName) public ownerOnly {\r\n        require(_contractName.length > 0); // validate input\r\n        require(items[_contractName].contractAddress != address(0));\r\n\r\n        // remove the address from the registry\r\n        items[_contractName].contractAddress = address(0);\r\n\r\n        // if there are multiple items in the registry, move the last element to the deleted element's position\r\n        // and modify last element's registryItem.nameIndex in the items collection to point to the right position in contractNames\r\n        if (contractNames.length > 1) {\r\n            string memory lastContractNameString = contractNames[contractNames.length - 1];\r\n            uint256 unregisterIndex = items[_contractName].nameIndex;\r\n\r\n            contractNames[unregisterIndex] = lastContractNameString;\r\n            bytes32 lastContractName = stringToBytes32(lastContractNameString);\r\n            RegistryItem storage registryItem = items[lastContractName];\r\n            registryItem.nameIndex = unregisterIndex;\r\n        }\r\n\r\n        // remove the last element from the name list\r\n        contractNames.length--;\r\n        // zero the deleted element's index\r\n        items[_contractName].nameIndex = 0;\r\n\r\n        // dispatch the address update event\r\n        emit AddressUpdate(_contractName, address(0));\r\n    }\r\n\r\n    /**\r\n      * @dev utility, converts bytes32 to a string\r\n      * note that the bytes32 argument is assumed to be UTF8 encoded ASCII string\r\n      * \r\n      * @return string representation of the given bytes32 argument\r\n    */\r\n    function bytes32ToString(bytes32 _bytes) private pure returns (string) {\r\n        bytes memory byteArray = new bytes(32);\r\n        for (uint256 i; i < 32; i++) {\r\n            byteArray[i] = _bytes[i];\r\n        }\r\n\r\n        return string(byteArray);\r\n    }\r\n\r\n    /**\r\n      * @dev utility, converts string to bytes32\r\n      * note that the bytes32 argument is assumed to be UTF8 encoded ASCII string\r\n      * \r\n      * @return string representation of the given bytes32 argument\r\n    */\r\n    function stringToBytes32(string memory _string) private pure returns (bytes32) {\r\n        bytes32 result;\r\n        assembly {\r\n            result := mload(add(_string,32))\r\n        }\r\n        return result;\r\n    }\r\n\r\n    /**\r\n      * @dev deprecated, backward compatibility\r\n    */\r\n    function getAddress(bytes32 _contractName) public view returns (address) {\r\n        return addressOf(_contractName);\r\n    }\r\n}\r\n",
  "sourcePath": "/home/lash/src/home/grassroots/contracts/solidity/contracts/utility/ContractRegistry.sol",
  "compiler": {
    "name": "solc",
    "version": "0.4.26+commit.4563c3fc.Emscripten.clang"
  },
  "schemaVersion": "2.0.3",
  "updatedAt": "2020-03-23T23:12:00.340Z"
}