{
  "contractName": "IAddressList",
  "abi": [
    {
      "constant": true,
      "inputs": [
        {
          "name": "",
          "type": "address"
        }
      ],
      "name": "listedAddresses",
      "outputs": [
        {
          "name": "",
          "type": "bool"
        }
      ],
      "payable": false,
      "stateMutability": "view",
      "type": "function"
    }
  ],
  "bytecode": "0x608060405234801561001057600080fd5b5060c38061001f6000396000f300608060405260043610603e5763ffffffff7c0100000000000000000000000000000000000000000000000000000000600035041663aeea10bd81146043575b600080fd5b348015604e57600080fd5b50606e73ffffffffffffffffffffffffffffffffffffffff600435166082565b604080519115158252519081900360200190f35b60006020819052908152604090205460ff16815600a165627a7a7230582026ca807f269b9a0fd74502f3c10bac9adf2aec0fafcc75ee7bd86d63887ddaa30029",
  "source": "pragma solidity 0.4.26;\n\n/*\n    Address list interface\n*/\ncontract IAddressList {\n    mapping (address => bool) public listedAddresses;\n}\n",
  "sourcePath": "/home/lash/src/home/grassroots/contracts/solidity/contracts/utility/interfaces/IAddressList.sol",
  "compiler": {
    "name": "solc",
    "version": "0.4.26+commit.4563c3fc.Emscripten.clang"
  },
  "schemaVersion": "2.0.3",
  "updatedAt": "2020-03-22T14:20:02.142Z"
}