{
  "contractName": "NonStandardSmartToken",
  "abi": [
    {
      "constant": true,
      "inputs": [],
      "name": "name",
      "outputs": [
        {
          "name": "",
          "type": "string"
        }
      ],
      "payable": false,
      "stateMutability": "view",
      "type": "function"
    },
    {
      "constant": false,
      "inputs": [
        {
          "name": "_spender",
          "type": "address"
        },
        {
          "name": "_value",
          "type": "uint256"
        }
      ],
      "name": "approve",
      "outputs": [],
      "payable": false,
      "stateMutability": "nonpayable",
      "type": "function"
    },
    {
      "constant": true,
      "inputs": [],
      "name": "totalSupply",
      "outputs": [
        {
          "name": "",
          "type": "uint256"
        }
      ],
      "payable": false,
      "stateMutability": "view",
      "type": "function"
    },
    {
      "constant": true,
      "inputs": [],
      "name": "decimals",
      "outputs": [
        {
          "name": "",
          "type": "uint8"
        }
      ],
      "payable": false,
      "stateMutability": "view",
      "type": "function"
    },
    {
      "constant": true,
      "inputs": [],
      "name": "version",
      "outputs": [
        {
          "name": "",
          "type": "string"
        }
      ],
      "payable": false,
      "stateMutability": "view",
      "type": "function"
    },
    {
      "constant": true,
      "inputs": [],
      "name": "standard",
      "outputs": [
        {
          "name": "",
          "type": "string"
        }
      ],
      "payable": false,
      "stateMutability": "view",
      "type": "function"
    },
    {
      "constant": true,
      "inputs": [
        {
          "name": "",
          "type": "address"
        }
      ],
      "name": "balanceOf",
      "outputs": [
        {
          "name": "",
          "type": "uint256"
        }
      ],
      "payable": false,
      "stateMutability": "view",
      "type": "function"
    },
    {
      "constant": false,
      "inputs": [],
      "name": "acceptOwnership",
      "outputs": [],
      "payable": false,
      "stateMutability": "nonpayable",
      "type": "function"
    },
    {
      "constant": true,
      "inputs": [],
      "name": "owner",
      "outputs": [
        {
          "name": "",
          "type": "address"
        }
      ],
      "payable": false,
      "stateMutability": "view",
      "type": "function"
    },
    {
      "constant": true,
      "inputs": [],
      "name": "symbol",
      "outputs": [
        {
          "name": "",
          "type": "string"
        }
      ],
      "payable": false,
      "stateMutability": "view",
      "type": "function"
    },
    {
      "constant": true,
      "inputs": [],
      "name": "transfersEnabled",
      "outputs": [
        {
          "name": "",
          "type": "bool"
        }
      ],
      "payable": false,
      "stateMutability": "view",
      "type": "function"
    },
    {
      "constant": true,
      "inputs": [],
      "name": "newOwner",
      "outputs": [
        {
          "name": "",
          "type": "address"
        }
      ],
      "payable": false,
      "stateMutability": "view",
      "type": "function"
    },
    {
      "constant": true,
      "inputs": [
        {
          "name": "",
          "type": "address"
        },
        {
          "name": "",
          "type": "address"
        }
      ],
      "name": "allowance",
      "outputs": [
        {
          "name": "",
          "type": "uint256"
        }
      ],
      "payable": false,
      "stateMutability": "view",
      "type": "function"
    },
    {
      "constant": false,
      "inputs": [
        {
          "name": "_newOwner",
          "type": "address"
        }
      ],
      "name": "transferOwnership",
      "outputs": [],
      "payable": false,
      "stateMutability": "nonpayable",
      "type": "function"
    },
    {
      "inputs": [
        {
          "name": "_name",
          "type": "string"
        },
        {
          "name": "_symbol",
          "type": "string"
        },
        {
          "name": "_decimals",
          "type": "uint8"
        }
      ],
      "payable": false,
      "stateMutability": "nonpayable",
      "type": "constructor"
    },
    {
      "anonymous": false,
      "inputs": [
        {
          "indexed": false,
          "name": "_token",
          "type": "address"
        }
      ],
      "name": "NewSmartToken",
      "type": "event"
    },
    {
      "anonymous": false,
      "inputs": [
        {
          "indexed": false,
          "name": "_amount",
          "type": "uint256"
        }
      ],
      "name": "Issuance",
      "type": "event"
    },
    {
      "anonymous": false,
      "inputs": [
        {
          "indexed": false,
          "name": "_amount",
          "type": "uint256"
        }
      ],
      "name": "Destruction",
      "type": "event"
    },
    {
      "anonymous": false,
      "inputs": [
        {
          "indexed": true,
          "name": "_from",
          "type": "address"
        },
        {
          "indexed": true,
          "name": "_to",
          "type": "address"
        },
        {
          "indexed": false,
          "name": "_value",
          "type": "uint256"
        }
      ],
      "name": "Transfer",
      "type": "event"
    },
    {
      "anonymous": false,
      "inputs": [
        {
          "indexed": true,
          "name": "_owner",
          "type": "address"
        },
        {
          "indexed": true,
          "name": "_spender",
          "type": "address"
        },
        {
          "indexed": false,
          "name": "_value",
          "type": "uint256"
        }
      ],
      "name": "Approval",
      "type": "event"
    },
    {
      "anonymous": false,
      "inputs": [
        {
          "indexed": true,
          "name": "_prevOwner",
          "type": "address"
        },
        {
          "indexed": true,
          "name": "_newOwner",
          "type": "address"
        }
      ],
      "name": "OwnerUpdate",
      "type": "event"
    },
    {
      "constant": false,
      "inputs": [
        {
          "name": "_disable",
          "type": "bool"
        }
      ],
      "name": "disableTransfers",
      "outputs": [],
      "payable": false,
      "stateMutability": "nonpayable",
      "type": "function"
    },
    {
      "constant": false,
      "inputs": [
        {
          "name": "_to",
          "type": "address"
        },
        {
          "name": "_amount",
          "type": "uint256"
        }
      ],
      "name": "issue",
      "outputs": [],
      "payable": false,
      "stateMutability": "nonpayable",
      "type": "function"
    },
    {
      "constant": false,
      "inputs": [
        {
          "name": "_from",
          "type": "address"
        },
        {
          "name": "_amount",
          "type": "uint256"
        }
      ],
      "name": "destroy",
      "outputs": [],
      "payable": false,
      "stateMutability": "nonpayable",
      "type": "function"
    },
    {
      "constant": false,
      "inputs": [
        {
          "name": "_to",
          "type": "address"
        },
        {
          "name": "_value",
          "type": "uint256"
        }
      ],
      "name": "transfer",
      "outputs": [],
      "payable": false,
      "stateMutability": "nonpayable",
      "type": "function"
    },
    {
      "constant": false,
      "inputs": [
        {
          "name": "_from",
          "type": "address"
        },
        {
          "name": "_to",
          "type": "address"
        },
        {
          "name": "_value",
          "type": "uint256"
        }
      ],
      "name": "transferFrom",
      "outputs": [],
      "payable": false,
      "stateMutability": "nonpayable",
      "type": "function"
    }
  ],
  "bytecode": "0x60c0604052600960808190527f546f6b656e20302e31000000000000000000000000000000000000000000000060a0908152620000409160029190620001d6565b506040805160208101918290526000908190526200006191600391620001d6565b506040805160208101918290526000908190526200008291600491620001d6565b506005805460ff1916905560006006556040805180820190915260038082527f302e3300000000000000000000000000000000000000000000000000000000006020909201918252620000d891600991620001d6565b50600a805460ff19166001179055348015620000f357600080fd5b5060405162000eb138038062000eb1833981016040908152815160208301519183015160008054600160a060020a0319163317815591840180519094939093019290918491849184911180156200014b575060008251115b15156200015757600080fd5b82516200016c906003906020860190620001d6565b50815162000182906004906020850190620001d6565b506005805460ff90921660ff1990921691909117905550506040805130815290517ff4cd1f8571e8d9c97ffcb81558807ab73f9803d54de5da6a0420593c82a4a9f09181900360200190a15050506200027b565b828054600181600116156101000203166002900490600052602060002090601f016020900481019282601f106200021957805160ff191683800117855562000249565b8280016001018555821562000249579182015b82811115620002495782518255916020019190600101906200022c565b50620002579291506200025b565b5090565b6200027891905b8082111562000257576000815560010162000262565b90565b610c26806200028b6000396000f3006080604052600436106101065763ffffffff7c010000000000000000000000000000000000000000000000000000000060003504166306fdde03811461010b578063095ea7b3146101955780631608f18f146101bb57806318160ddd146101d557806323b872dd146101fc578063313ce5671461022657806354fd4d50146102515780635a3b7e421461026657806370a082311461027b57806379ba50971461029c578063867904b4146102b15780638da5cb5b146102d557806395d89b4114610306578063a24835d11461031b578063a9059cbb1461033f578063bef97c8714610363578063d4ee1d901461038c578063dd62ed3e146103a1578063f2fde38b146103c8575b600080fd5b34801561011757600080fd5b506101206103e9565b6040805160208082528351818301528351919283929083019185019080838360005b8381101561015a578181015183820152602001610142565b50505050905090810190601f1680156101875780820380516001836020036101000a031916815260200191505b509250505060405180910390f35b3480156101a157600080fd5b506101b9600160a060020a0360043516602435610477565b005b3480156101c757600080fd5b506101b96004351515610529565b3480156101e157600080fd5b506101ea610552565b60408051918252519081900360200190f35b34801561020857600080fd5b506101b9600160a060020a0360043581169060243516604435610558565b34801561023257600080fd5b5061023b610576565b6040805160ff9092168252519081900360200190f35b34801561025d57600080fd5b5061012061057f565b34801561027257600080fd5b506101206105da565b34801561028757600080fd5b506101ea600160a060020a0360043516610632565b3480156102a857600080fd5b506101b9610644565b3480156102bd57600080fd5b506101b9600160a060020a03600435166024356106cc565b3480156102e157600080fd5b506102ea6107d5565b60408051600160a060020a039092168252519081900360200190f35b34801561031257600080fd5b506101206107e4565b34801561032757600080fd5b506101b9600160a060020a036004351660243561083f565b34801561034b57600080fd5b506101b9600160a060020a0360043516602435610928565b34801561036f57600080fd5b50610378610944565b604080519115158252519081900360200190f35b34801561039857600080fd5b506102ea61094d565b3480156103ad57600080fd5b506101ea600160a060020a036004358116906024351661095c565b3480156103d457600080fd5b506101b9600160a060020a0360043516610979565b6003805460408051602060026001851615610100026000190190941693909304601f8101849004840282018401909252818152929183018282801561046f5780601f106104445761010080835404028352916020019161046f565b820191906000526020600020905b81548152906001019060200180831161045257829003601f168201915b505050505081565b81600160a060020a038116151561048d57600080fd5b8115806104bb5750336000908152600860209081526040808320600160a060020a0387168452909152902054155b15156104c657600080fd5b336000818152600860209081526040808320600160a060020a03881680855290835292819020869055805186815290519293927f8c5be1e5ebec7d5bd14f71427d1e84f3dd0314c0f7b2291e5b200ac8c7c3b925929181900390910190a3505050565b600054600160a060020a0316331461054057600080fd5b600a805460ff19169115919091179055565b60065481565b600a5460ff16151561056657fe5b6105718383836109da565b505050565b60055460ff1681565b6009805460408051602060026001851615610100026000190190941693909304601f8101849004840282018401909252818152929183018282801561046f5780601f106104445761010080835404028352916020019161046f565b6002805460408051602060018416156101000260001901909316849004601f8101849004840282018401909252818152929183018282801561046f5780601f106104445761010080835404028352916020019161046f565b60076020526000908152604090205481565b600154600160a060020a0316331461065b57600080fd5b60015460008054604051600160a060020a0393841693909116917f343765429aea5a34b3ff6a3785a98a5abb2597aca87bfbb58632c173d585373a91a3600180546000805473ffffffffffffffffffffffffffffffffffffffff19908116600160a060020a03841617909155169055565b600054600160a060020a031633146106e357600080fd5b81600160a060020a03811615156106f957600080fd5b82600160a060020a03811630141561071057600080fd5b600654610723908463ffffffff610afc16565b600655600160a060020a03841660009081526007602052604090205461074f908463ffffffff610afc16565b600160a060020a03851660009081526007602090815260409182902092909255805185815290517f9386c90217c323f58030f9dadcbc938f807a940f4ff41cd4cead9562f5da7dc3929181900390910190a1604080518481529051600160a060020a038616913091600080516020610bdb8339815191529181900360200190a350505050565b600054600160a060020a031681565b6004805460408051602060026001851615610100026000190190941693909304601f8101849004840282018401909252818152929183018282801561046f5780601f106104445761010080835404028352916020019161046f565b33600160a060020a03831614806108605750600054600160a060020a031633145b151561086b57600080fd5b600160a060020a038216600090815260076020526040902054610894908263ffffffff610b1516565b600160a060020a0383166000908152600760205260409020556006546108c0908263ffffffff610b1516565b6006556040805182815290513091600160a060020a03851691600080516020610bdb8339815191529181900360200190a36040805182815290517f9a1b418bc061a5d80270261562e6986a35d995f8051145f277be16103abd34539181900360200190a15050565b600a5460ff16151561093657fe5b6109408282610b2a565b5050565b600a5460ff1681565b600154600160a060020a031681565b600860209081526000928352604080842090915290825290205481565b600054600160a060020a0316331461099057600080fd5b600054600160a060020a03828116911614156109ab57600080fd5b6001805473ffffffffffffffffffffffffffffffffffffffff1916600160a060020a0392909216919091179055565b82600160a060020a03811615156109f057600080fd5b82600160a060020a0381161515610a0657600080fd5b600160a060020a0385166000908152600860209081526040808320338452909152902054610a3a908463ffffffff610b1516565b600160a060020a038616600081815260086020908152604080832033845282528083209490945591815260079091522054610a7b908463ffffffff610b1516565b600160a060020a038087166000908152600760205260408082209390935590861681522054610ab0908463ffffffff610afc16565b600160a060020a038086166000818152600760209081526040918290209490945580518781529051919392891692600080516020610bdb83398151915292918290030190a35050505050565b600082820183811015610b0e57600080fd5b9392505050565b600081831015610b2457600080fd5b50900390565b81600160a060020a0381161515610b4057600080fd5b33600090815260076020526040902054610b60908363ffffffff610b1516565b3360009081526007602052604080822092909255600160a060020a03851681522054610b92908363ffffffff610afc16565b600160a060020a038416600081815260076020908152604091829020939093558051858152905191923392600080516020610bdb8339815191529281900390910190a35050505600ddf252ad1be2c89b69c2b068fc378daa952ba7f163c4a11628f55a4df523b3efa165627a7a72305820f4244180a8a9698ccea1d53f1312728de71f1d74abda6542602d849e03b2a8d70029",
  "source": "pragma solidity 0.4.26;\r\nimport './NonStandardERC20Token.sol';\r\nimport '../utility/Owned.sol';\r\n\r\n/*\r\n    Smart Token v0.3\r\n\r\n    'Owned' is specified here for readability reasons\r\n*/\r\ncontract NonStandardSmartToken is Owned, NonStandardERC20Token {\r\n    using SafeMath for uint256;\r\n\r\n\r\n    string public version = '0.3';\r\n\r\n    bool public transfersEnabled = true;    // true if transfer/transferFrom are enabled, false if not\r\n\r\n    // triggered when a smart token is deployed - the _token address is defined for forward compatibility, in case we want to trigger the event from a factory\r\n    event NewSmartToken(address _token);\r\n    // triggered when the total supply is increased\r\n    event Issuance(uint256 _amount);\r\n    // triggered when the total supply is decreased\r\n    event Destruction(uint256 _amount);\r\n\r\n    /**\r\n      * @dev initializes a new NonStandardSmartToken instance\r\n      * \r\n      * @param _name       token name\r\n      * @param _symbol     token short symbol, minimum 1 character\r\n      * @param _decimals   for display purposes only\r\n    */\r\n    constructor(string _name, string _symbol, uint8 _decimals)\r\n        public\r\n        NonStandardERC20Token(_name, _symbol, _decimals)\r\n    {\r\n        emit NewSmartToken(address(this));\r\n    }\r\n\r\n    // allows execution only when transfers aren't disabled\r\n    modifier transfersAllowed {\r\n        assert(transfersEnabled);\r\n        _;\r\n    }\r\n\r\n    /**\r\n      * @dev disables/enables transfers\r\n      * can only be called by the contract owner\r\n      * \r\n      * @param _disable    true to disable transfers, false to enable them\r\n    */\r\n    function disableTransfers(bool _disable) public ownerOnly {\r\n        transfersEnabled = !_disable;\r\n    }\r\n\r\n    /**\r\n      * @dev increases the token supply and sends the new tokens to an account\r\n      * can only be called by the contract owner\r\n      * \r\n      * @param _to         account to receive the new amount\r\n      * @param _amount     amount to increase the supply by\r\n    */\r\n    function issue(address _to, uint256 _amount)\r\n        public\r\n        ownerOnly\r\n        validAddress(_to)\r\n        notThis(_to)\r\n    {\r\n        totalSupply = totalSupply.add(_amount);\r\n        balanceOf[_to] = balanceOf[_to].add(_amount);\r\n\r\n        emit Issuance(_amount);\r\n        emit Transfer(this, _to, _amount);\r\n    }\r\n\r\n    /**\r\n      * @dev removes tokens from an account and decreases the token supply\r\n      * can be called by the contract owner to destroy tokens from any account or by any holder to destroy tokens from his/her own account\r\n      * \r\n      * @param _from       account to remove the amount from\r\n      * @param _amount     amount to decrease the supply by\r\n    */\r\n    function destroy(address _from, uint256 _amount) public {\r\n        require(msg.sender == _from || msg.sender == owner); // validate input\r\n\r\n        balanceOf[_from] = balanceOf[_from].sub(_amount);\r\n        totalSupply = totalSupply.sub(_amount);\r\n\r\n        emit Transfer(_from, this, _amount);\r\n        emit Destruction(_amount);\r\n    }\r\n\r\n    // ERC20 standard method overrides with some extra functionality\r\n\r\n    /**\r\n      * @dev send coins\r\n      * throws on any error rather then return a false flag to minimize user errors\r\n      * in addition to the standard checks, the function throws if transfers are disabled\r\n      * \r\n      * @param _to      target address\r\n      * @param _value   transfer amount\r\n    */\r\n    function transfer(address _to, uint256 _value) public transfersAllowed {\r\n        super.transfer(_to, _value);\r\n    }\r\n\r\n    /**\r\n      * @dev an account/contract attempts to get the coins\r\n      * throws on any error rather then return a false flag to minimize user errors\r\n      * in addition to the standard checks, the function throws if transfers are disabled\r\n      * \r\n      * @param _from    source address\r\n      * @param _to      target address\r\n      * @param _value   transfer amount\r\n    */\r\n    function transferFrom(address _from, address _to, uint256 _value) public transfersAllowed {\r\n        super.transferFrom(_from, _to, _value);\r\n    }\r\n}\r\n",
  "sourcePath": "/home/lash/src/home/grassroots/contracts/solidity/contracts/helpers/NonStandardSmartToken.sol",
  "compiler": {
    "name": "solc",
    "version": "0.4.26+commit.4563c3fc.Emscripten.clang"
  },
  "schemaVersion": "2.0.3",
  "updatedAt": "2020-03-12T07:34:08.473Z"
}