{
  "contractName": "SmartToken",
  "abi": [
    {
      "constant": true,
      "inputs": [],
      "name": "name",
      "outputs": [
        {
          "name": "",
          "type": "string"
        }
      ],
      "payable": false,
      "stateMutability": "view",
      "type": "function"
    },
    {
      "constant": false,
      "inputs": [
        {
          "name": "_spender",
          "type": "address"
        },
        {
          "name": "_value",
          "type": "uint256"
        }
      ],
      "name": "approve",
      "outputs": [
        {
          "name": "success",
          "type": "bool"
        }
      ],
      "payable": false,
      "stateMutability": "nonpayable",
      "type": "function"
    },
    {
      "constant": true,
      "inputs": [],
      "name": "totalSupply",
      "outputs": [
        {
          "name": "",
          "type": "uint256"
        }
      ],
      "payable": false,
      "stateMutability": "view",
      "type": "function"
    },
    {
      "constant": true,
      "inputs": [],
      "name": "decimals",
      "outputs": [
        {
          "name": "",
          "type": "uint8"
        }
      ],
      "payable": false,
      "stateMutability": "view",
      "type": "function"
    },
    {
      "constant": true,
      "inputs": [],
      "name": "version",
      "outputs": [
        {
          "name": "",
          "type": "string"
        }
      ],
      "payable": false,
      "stateMutability": "view",
      "type": "function"
    },
    {
      "constant": false,
      "inputs": [
        {
          "name": "_token",
          "type": "address"
        },
        {
          "name": "_to",
          "type": "address"
        },
        {
          "name": "_amount",
          "type": "uint256"
        }
      ],
      "name": "withdrawTokens",
      "outputs": [],
      "payable": false,
      "stateMutability": "nonpayable",
      "type": "function"
    },
    {
      "constant": true,
      "inputs": [
        {
          "name": "",
          "type": "address"
        }
      ],
      "name": "balanceOf",
      "outputs": [
        {
          "name": "",
          "type": "uint256"
        }
      ],
      "payable": false,
      "stateMutability": "view",
      "type": "function"
    },
    {
      "constant": false,
      "inputs": [],
      "name": "acceptOwnership",
      "outputs": [],
      "payable": false,
      "stateMutability": "nonpayable",
      "type": "function"
    },
    {
      "constant": true,
      "inputs": [],
      "name": "owner",
      "outputs": [
        {
          "name": "",
          "type": "address"
        }
      ],
      "payable": false,
      "stateMutability": "view",
      "type": "function"
    },
    {
      "constant": true,
      "inputs": [],
      "name": "symbol",
      "outputs": [
        {
          "name": "",
          "type": "string"
        }
      ],
      "payable": false,
      "stateMutability": "view",
      "type": "function"
    },
    {
      "constant": true,
      "inputs": [],
      "name": "transfersEnabled",
      "outputs": [
        {
          "name": "",
          "type": "bool"
        }
      ],
      "payable": false,
      "stateMutability": "view",
      "type": "function"
    },
    {
      "constant": true,
      "inputs": [],
      "name": "newOwner",
      "outputs": [
        {
          "name": "",
          "type": "address"
        }
      ],
      "payable": false,
      "stateMutability": "view",
      "type": "function"
    },
    {
      "constant": true,
      "inputs": [
        {
          "name": "",
          "type": "address"
        },
        {
          "name": "",
          "type": "address"
        }
      ],
      "name": "allowance",
      "outputs": [
        {
          "name": "",
          "type": "uint256"
        }
      ],
      "payable": false,
      "stateMutability": "view",
      "type": "function"
    },
    {
      "constant": false,
      "inputs": [
        {
          "name": "_newOwner",
          "type": "address"
        }
      ],
      "name": "transferOwnership",
      "outputs": [],
      "payable": false,
      "stateMutability": "nonpayable",
      "type": "function"
    },
    {
      "inputs": [
        {
          "name": "_name",
          "type": "string"
        },
        {
          "name": "_symbol",
          "type": "string"
        },
        {
          "name": "_decimals",
          "type": "uint8"
        }
      ],
      "payable": false,
      "stateMutability": "nonpayable",
      "type": "constructor"
    },
    {
      "anonymous": false,
      "inputs": [
        {
          "indexed": false,
          "name": "_token",
          "type": "address"
        }
      ],
      "name": "NewSmartToken",
      "type": "event"
    },
    {
      "anonymous": false,
      "inputs": [
        {
          "indexed": false,
          "name": "_amount",
          "type": "uint256"
        }
      ],
      "name": "Issuance",
      "type": "event"
    },
    {
      "anonymous": false,
      "inputs": [
        {
          "indexed": false,
          "name": "_amount",
          "type": "uint256"
        }
      ],
      "name": "Destruction",
      "type": "event"
    },
    {
      "anonymous": false,
      "inputs": [
        {
          "indexed": true,
          "name": "_from",
          "type": "address"
        },
        {
          "indexed": true,
          "name": "_to",
          "type": "address"
        },
        {
          "indexed": false,
          "name": "_value",
          "type": "uint256"
        }
      ],
      "name": "Transfer",
      "type": "event"
    },
    {
      "anonymous": false,
      "inputs": [
        {
          "indexed": true,
          "name": "_owner",
          "type": "address"
        },
        {
          "indexed": true,
          "name": "_spender",
          "type": "address"
        },
        {
          "indexed": false,
          "name": "_value",
          "type": "uint256"
        }
      ],
      "name": "Approval",
      "type": "event"
    },
    {
      "anonymous": false,
      "inputs": [
        {
          "indexed": true,
          "name": "_prevOwner",
          "type": "address"
        },
        {
          "indexed": true,
          "name": "_newOwner",
          "type": "address"
        }
      ],
      "name": "OwnerUpdate",
      "type": "event"
    },
    {
      "constant": false,
      "inputs": [
        {
          "name": "_disable",
          "type": "bool"
        }
      ],
      "name": "disableTransfers",
      "outputs": [],
      "payable": false,
      "stateMutability": "nonpayable",
      "type": "function"
    },
    {
      "constant": false,
      "inputs": [
        {
          "name": "_to",
          "type": "address"
        },
        {
          "name": "_amount",
          "type": "uint256"
        }
      ],
      "name": "issue",
      "outputs": [],
      "payable": false,
      "stateMutability": "nonpayable",
      "type": "function"
    },
    {
      "constant": false,
      "inputs": [
        {
          "name": "_from",
          "type": "address"
        },
        {
          "name": "_amount",
          "type": "uint256"
        }
      ],
      "name": "destroy",
      "outputs": [],
      "payable": false,
      "stateMutability": "nonpayable",
      "type": "function"
    },
    {
      "constant": false,
      "inputs": [
        {
          "name": "_to",
          "type": "address"
        },
        {
          "name": "_value",
          "type": "uint256"
        }
      ],
      "name": "transfer",
      "outputs": [
        {
          "name": "success",
          "type": "bool"
        }
      ],
      "payable": false,
      "stateMutability": "nonpayable",
      "type": "function"
    },
    {
      "constant": false,
      "inputs": [
        {
          "name": "_from",
          "type": "address"
        },
        {
          "name": "_to",
          "type": "address"
        },
        {
          "name": "_value",
          "type": "uint256"
        }
      ],
      "name": "transferFrom",
      "outputs": [
        {
          "name": "success",
          "type": "bool"
        }
      ],
      "payable": false,
      "stateMutability": "nonpayable",
      "type": "function"
    }
  ],
  "bytecode": "0x60c0604052600360808190527f302e33000000000000000000000000000000000000000000000000000000000060a09081526200004091600891906200015a565b506009805460ff191660011790553480156200005b57600080fd5b5060405162000f1a38038062000f1a833981016040908152815160208301519183015160008054600160a060020a03191633178155918401805190949390930192909184918491849181108015620000b4575060008351115b1515620000c057600080fd5b8351620000d59060029060208701906200015a565b508251620000eb9060039060208601906200015a565b506004805460ff191660ff939093169290921790915560058190553360009081526006602090815260409182902092909255805130815290517ff4cd1f8571e8d9c97ffcb81558807ab73f9803d54de5da6a0420593c82a4a9f09450908190039091019150a1505050620001ff565b828054600181600116156101000203166002900490600052602060002090601f016020900481019282601f106200019d57805160ff1916838001178555620001cd565b82800160010185558215620001cd579182015b82811115620001cd578251825591602001919060010190620001b0565b50620001db929150620001df565b5090565b620001fc91905b80821115620001db5760008155600101620001e6565b90565b610d0b806200020f6000396000f3006080604052600436106101065763ffffffff7c010000000000000000000000000000000000000000000000000000000060003504166306fdde03811461010b578063095ea7b3146101955780631608f18f146101cd57806318160ddd146101e957806323b872dd14610210578063313ce5671461023a57806354fd4d50146102655780635e35359e1461027a57806370a08231146102a457806379ba5097146102c5578063867904b4146102da5780638da5cb5b146102fe57806395d89b411461032f578063a24835d114610344578063a9059cbb14610368578063bef97c871461038c578063d4ee1d90146103a1578063dd62ed3e146103b6578063f2fde38b146103dd575b600080fd5b34801561011757600080fd5b506101206103fe565b6040805160208082528351818301528351919283929083019185019080838360005b8381101561015a578181015183820152602001610142565b50505050905090810190601f1680156101875780820380516001836020036101000a031916815260200191505b509250505060405180910390f35b3480156101a157600080fd5b506101b9600160a060020a0360043516602435610489565b604080519115158252519081900360200190f35b3480156101d957600080fd5b506101e76004351515610542565b005b3480156101f557600080fd5b506101fe61056b565b60408051918252519081900360200190f35b34801561021c57600080fd5b506101b9600160a060020a0360043581169060243516604435610571565b34801561024657600080fd5b5061024f61059f565b6040805160ff9092168252519081900360200190f35b34801561027157600080fd5b506101206105a8565b34801561028657600080fd5b506101e7600160a060020a0360043581169060243516604435610603565b3480156102b057600080fd5b506101fe600160a060020a03600435166106f9565b3480156102d157600080fd5b506101e761070b565b3480156102e657600080fd5b506101e7600160a060020a0360043516602435610793565b34801561030a57600080fd5b5061031361089c565b60408051600160a060020a039092168252519081900360200190f35b34801561033b57600080fd5b506101206108ab565b34801561035057600080fd5b506101e7600160a060020a0360043516602435610906565b34801561037457600080fd5b506101b9600160a060020a03600435166024356109ef565b34801561039857600080fd5b506101b9610a1b565b3480156103ad57600080fd5b50610313610a24565b3480156103c257600080fd5b506101fe600160a060020a0360043581169060243516610a33565b3480156103e957600080fd5b506101e7600160a060020a0360043516610a50565b6002805460408051602060018416156101000260001901909316849004601f810184900484028201840190925281815292918301828280156104815780601f1061045657610100808354040283529160200191610481565b820191906000526020600020905b81548152906001019060200180831161046457829003601f168201915b505050505081565b600082600160a060020a03811615156104a157600080fd5b8215806104cf5750336000908152600760209081526040808320600160a060020a0388168452909152902054155b15156104da57600080fd5b336000818152600760209081526040808320600160a060020a03891680855290835292819020879055805187815290519293927f8c5be1e5ebec7d5bd14f71427d1e84f3dd0314c0f7b2291e5b200ac8c7c3b925929181900390910190a35060019392505050565b600054600160a060020a0316331461055957600080fd5b6009805460ff19169115919091179055565b60055481565b60095460009060ff16151561058257fe5b61058d848484610ab1565b151561059557fe5b5060019392505050565b60045460ff1681565b6008805460408051602060026001851615610100026000190190941693909304601f810184900484028201840190925281815292918301828280156104815780601f1061045657610100808354040283529160200191610481565b600054600160a060020a0316331461061a57600080fd5b82600160a060020a038116151561063057600080fd5b82600160a060020a038116151561064657600080fd5b83600160a060020a03811630141561065d57600080fd5b85600160a060020a031663a9059cbb86866040518363ffffffff167c01000000000000000000000000000000000000000000000000000000000281526004018083600160a060020a0316600160a060020a0316815260200182815260200192505050600060405180830381600087803b1580156106d957600080fd5b505af11580156106ed573d6000803e3d6000fd5b50505050505050505050565b60066020526000908152604090205481565b600154600160a060020a0316331461072257600080fd5b60015460008054604051600160a060020a0393841693909116917f343765429aea5a34b3ff6a3785a98a5abb2597aca87bfbb58632c173d585373a91a3600180546000805473ffffffffffffffffffffffffffffffffffffffff19908116600160a060020a03841617909155169055565b600054600160a060020a031633146107aa57600080fd5b81600160a060020a03811615156107c057600080fd5b82600160a060020a0381163014156107d757600080fd5b6005546107ea908463ffffffff610bda16565b600555600160a060020a038416600090815260066020526040902054610816908463ffffffff610bda16565b600160a060020a03851660009081526006602090815260409182902092909255805185815290517f9386c90217c323f58030f9dadcbc938f807a940f4ff41cd4cead9562f5da7dc3929181900390910190a1604080518481529051600160a060020a038616913091600080516020610cc08339815191529181900360200190a350505050565b600054600160a060020a031681565b6003805460408051602060026001851615610100026000190190941693909304601f810184900484028201840190925281815292918301828280156104815780601f1061045657610100808354040283529160200191610481565b33600160a060020a03831614806109275750600054600160a060020a031633145b151561093257600080fd5b600160a060020a03821660009081526006602052604090205461095b908263ffffffff610bf316565b600160a060020a038316600090815260066020526040902055600554610987908263ffffffff610bf316565b6005556040805182815290513091600160a060020a03851691600080516020610cc08339815191529181900360200190a36040805182815290517f9a1b418bc061a5d80270261562e6986a35d995f8051145f277be16103abd34539181900360200190a15050565b60095460009060ff161515610a0057fe5b610a0a8383610c08565b1515610a1257fe5b50600192915050565b60095460ff1681565b600154600160a060020a031681565b600760209081526000928352604080842090915290825290205481565b600054600160a060020a03163314610a6757600080fd5b600054600160a060020a0382811691161415610a8257600080fd5b6001805473ffffffffffffffffffffffffffffffffffffffff1916600160a060020a0392909216919091179055565b600083600160a060020a0381161515610ac957600080fd5b83600160a060020a0381161515610adf57600080fd5b600160a060020a0386166000908152600760209081526040808320338452909152902054610b13908563ffffffff610bf316565b600160a060020a038716600081815260076020908152604080832033845282528083209490945591815260069091522054610b54908563ffffffff610bf316565b600160a060020a038088166000908152600660205260408082209390935590871681522054610b89908563ffffffff610bda16565b600160a060020a0380871660008181526006602090815260409182902094909455805188815290519193928a1692600080516020610cc083398151915292918290030190a350600195945050505050565b600082820183811015610bec57600080fd5b9392505050565b600081831015610c0257600080fd5b50900390565b600082600160a060020a0381161515610c2057600080fd5b33600090815260066020526040902054610c40908463ffffffff610bf316565b3360009081526006602052604080822092909255600160a060020a03861681522054610c72908463ffffffff610bda16565b600160a060020a038516600081815260066020908152604091829020939093558051868152905191923392600080516020610cc08339815191529281900390910190a350600193925050505600ddf252ad1be2c89b69c2b068fc378daa952ba7f163c4a11628f55a4df523b3efa165627a7a72305820e64707f0604855e60dfc254a6a9ada13a1ba0dcc3a0cf5cda1f373422e42ac5b0029",
  "source": "pragma solidity 0.4.26;\r\nimport './ERC20Token.sol';\r\nimport './interfaces/ISmartToken.sol';\r\nimport '../utility/Owned.sol';\r\nimport '../utility/TokenHolder.sol';\r\n\r\n/**\r\n  * @dev Smart Token\r\n  * \r\n  * 'Owned' is specified here for readability reasons\r\n*/\r\ncontract SmartToken is ISmartToken, Owned, ERC20Token, TokenHolder {\r\n    using SafeMath for uint256;\r\n\r\n\r\n    string public version = '0.3';\r\n\r\n    bool public transfersEnabled = true;    // true if transfer/transferFrom are enabled, false if not\r\n\r\n    /**\r\n      * @dev triggered when a smart token is deployed\r\n      * the _token address is defined for forward compatibility, in case the event is trigger by a factory\r\n      * \r\n      * @param _token  new smart token address\r\n    */\r\n    event NewSmartToken(address _token);\r\n\r\n    /**\r\n      * @dev triggered when the total supply is increased\r\n      * \r\n      * @param _amount  amount that gets added to the supply\r\n    */\r\n    event Issuance(uint256 _amount);\r\n\r\n    /**\r\n      * @dev triggered when the total supply is decreased\r\n      * \r\n      * @param _amount  amount that gets removed from the supply\r\n    */\r\n    event Destruction(uint256 _amount);\r\n\r\n    /**\r\n      * @dev initializes a new SmartToken instance\r\n      * \r\n      * @param _name       token name\r\n      * @param _symbol     token short symbol, minimum 1 character\r\n      * @param _decimals   for display purposes only\r\n    */\r\n    constructor(string _name, string _symbol, uint8 _decimals)\r\n        public\r\n        ERC20Token(_name, _symbol, _decimals, 0)\r\n    {\r\n        emit NewSmartToken(address(this));\r\n    }\r\n\r\n    // allows execution only when transfers aren't disabled\r\n    modifier transfersAllowed {\r\n        assert(transfersEnabled);\r\n        _;\r\n    }\r\n\r\n    /**\r\n      * @dev disables/enables transfers\r\n      * can only be called by the contract owner\r\n      * \r\n      * @param _disable    true to disable transfers, false to enable them\r\n    */\r\n    function disableTransfers(bool _disable) public ownerOnly {\r\n        transfersEnabled = !_disable;\r\n    }\r\n\r\n    /**\r\n      * @dev increases the token supply and sends the new tokens to an account\r\n      * can only be called by the contract owner\r\n      * \r\n      * @param _to         account to receive the new amount\r\n      * @param _amount     amount to increase the supply by\r\n    */\r\n    function issue(address _to, uint256 _amount)\r\n        public\r\n        ownerOnly\r\n        validAddress(_to)\r\n        notThis(_to)\r\n    {\r\n        totalSupply = totalSupply.add(_amount);\r\n        balanceOf[_to] = balanceOf[_to].add(_amount);\r\n\r\n        emit Issuance(_amount);\r\n        emit Transfer(this, _to, _amount);\r\n    }\r\n\r\n    /**\r\n      * @dev removes tokens from an account and decreases the token supply\r\n      * can be called by the contract owner to destroy tokens from any account or by any holder to destroy tokens from his/her own account\r\n      * \r\n      * @param _from       account to remove the amount from\r\n      * @param _amount     amount to decrease the supply by\r\n    */\r\n    function destroy(address _from, uint256 _amount) public {\r\n        require(msg.sender == _from || msg.sender == owner); // validate input\r\n\r\n        balanceOf[_from] = balanceOf[_from].sub(_amount);\r\n        totalSupply = totalSupply.sub(_amount);\r\n\r\n        emit Transfer(_from, this, _amount);\r\n        emit Destruction(_amount);\r\n    }\r\n\r\n    // ERC20 standard method overrides with some extra functionality\r\n\r\n    /**\r\n      * @dev send coins\r\n      * throws on any error rather then return a false flag to minimize user errors\r\n      * in addition to the standard checks, the function throws if transfers are disabled\r\n      * \r\n      * @param _to      target address\r\n      * @param _value   transfer amount\r\n      * \r\n      * @return true if the transfer was successful, false if it wasn't\r\n    */\r\n    function transfer(address _to, uint256 _value) public transfersAllowed returns (bool success) {\r\n        assert(super.transfer(_to, _value));\r\n        return true;\r\n    }\r\n\r\n    /**\r\n      * @dev an account/contract attempts to get the coins\r\n      * throws on any error rather then return a false flag to minimize user errors\r\n      * in addition to the standard checks, the function throws if transfers are disabled\r\n      * \r\n      * @param _from    source address\r\n      * @param _to      target address\r\n      * @param _value   transfer amount\r\n      * \r\n      * @return true if the transfer was successful, false if it wasn't\r\n    */\r\n    function transferFrom(address _from, address _to, uint256 _value) public transfersAllowed returns (bool success) {\r\n        assert(super.transferFrom(_from, _to, _value));\r\n        return true;\r\n    }\r\n}\r\n",
  "sourcePath": "/home/lash/src/home/grassroots/contracts/solidity/contracts/token/SmartToken.sol",
  "compiler": {
    "name": "solc",
    "version": "0.4.26+commit.4563c3fc.Emscripten.clang"
  },
  "schemaVersion": "2.0.3",
  "updatedAt": "2020-03-23T23:12:00.338Z"
}